:100000000C940F020C9456020C9456020C947F250B
:100010000C9456020C9456020C9456020C94560200
:100020000C9456020C9456020C940A2D0C94DC2D60
:100030000C9411280C9456020C9456020C945602FF
:100040000C9456020C9456020C9456020C945602D0
:100050000C9456020C9486280C9456020C9456026A
:100060000C9456020C9456020C9456020C945602B0
:100070000C9456020C9456020C9456020C945602A0
:100080000C9456020C9456020C9456020C94560290
:100090000C9456020C9456020C9456020C94560280
:1000A0000C9456020C9456020C945602020C020C4C
:1000B000140C140C0B0C140C140C140C020C020C6D
:1000C000100C140C140C100C5A0C5A0C880C880CC4
:1000D000ED0C090D370E370E140DAF0DC20DC20D0C
:1000E000270E370E370E300E492E702E682F702EC9
:1000F000682FBC2EDF2E682F362F452F14001A00D4
:1001000008001500170004001600076409680A00BB
:100110001D001B000457055703572C6702550000AC
:10012000000000001C0018000C00120013000B005F
:100130000D780E740F002A001100100001570057AF
:1001400002571155115000000000000029001F0245
:100150002002075722022B002E00350234020857D6
:100160007A007B007C007D000503105002550000E2
:100170000000000023022402250213572A00125710
:100180002F023002330028002F0026022702300001
:100190001350E60012500000000000002900AE00DD
:1001A000AC00AB002D022B003800AA00A9002E02E3
:1001B000005C5500BE00BD0063001050E30000006D
:1001C000000000002D0024002500260001002E0064
:1001D000210022002300280027001E001F0020000D
:1001E0000100E60012500000000000000A57FB006A
:1001F000ED00FC000B570C57EF00EE00F0004C68D0
:100200000E57F200F900FA00010010500100000042
:10021000000000002F082B032B113008010010579D
:100220005178527411572800F100FD00FE00FF00C4
:100230000000E60011500000000000000000000077
:10024000000000002A2B2800000000000000000031
:100250000000000000000029000000002C1E3420D7
:10026000212224342627252E362D3738271E1F20FD
:100270002122232425263333362E37381F04050642
:100280000708090A0B0C0D0E0F1011121314151686
:100290001718191A1B1C1D2F3130232D3504050684
:1002A0000708090A0B0C0D0E0F1011121314151666
:1002B0001718191A1B1C1D2F3130354C0000000077
:1002C000000000000000000000000000000000002E
:1002D000000000000000000000000000000000001E
:1002E0007E0F00D4FFFFFFC7000000781A0346000E
:1002F00065007200720069007300200073007700CF
:1003000065006500700000000803440050004200D2
:1003100000000403090409023B00020100A0FA09DD
:100320000400000103010100092111010001224024
:10033000000705810308000A090401000103000009
:1003400000092111010001227B0007058203200022
:100350000A1201000200000008ABC2393901000195
:1003600002000105010902A10185020901A10005A0
:100370000919012908150025019508750181020553
:1003800001093009311581257F950275088106091B
:10039000381581257F950175088106050C0A3802FC
:1003A0001581257F950175088106C0C0050109806A
:1003B000A101850319012AB700150126B70095018F
:1003C00075108100C0050C0901A101850419012ADD
:1003D000A002150126A002950175108100C005013B
:1003E0000906A101050719E029E71500250195086F
:1003F000750181029501750881010507190029FF22
:10040000150026FF009506750881000508190129C9
:1004100005950575019102950175039101C011249F
:100420001FBECFEFDAE0DEBFCDBF04B603FE27C0AC
:100430008091790490917A04A0917B04B0917C041E
:100440008730904BA740B04BD1F4109279041092B2
:100450007A0410927B0410927C0414BE84B7877FC8
:1004600084BF0FB6F894A89580916000886180934E
:100470006000109260000FBEE0E0F8E3099513E021
:10048000A0E0B1E0ECE6F0E602C005900D92A038E5
:10049000B107D9F724E0A0E8B3E001C01D92A93765
:1004A000B207E1F70E94C41D0C9434300C94000094
:1004B000CF93DF93EC018881833061F486E390E091
:1004C0000E94B30886E390E00E94B30886E390E0C0
:1004D0000E94B3088881843030F086E390E0DF9199
:1004E000CF910C94B308DF91CF910895CF93DF9310
:1004F000EC018881833061F488E390E00E94B308C6
:1005000088E390E00E94B30888E390E00E94B3087B
:100510008881843030F088E390E0DF91CF910C94B3
:10052000B308DF91CF910895CF93DF93EC018881D9
:10053000833061F487E390E00E94B30887E390E0A2
:100540000E94B30887E390E00E94B308888184305A
:1005500030F087E390E0DF91CF910C94B308DF9106
:10056000CF910895CF93DF93EC018881833061F4BC
:1005700081E292E00E94B30881E292E00E94B30817
:1005800081E292E00E94B3088881843030F081E2F9
:1005900092E0DF91CF910C94B308DF91CF91089551
:1005A000CF93DF93EC018881833061F484E390E0A2
:1005B0000E94B30884E390E00E94B30884E390E0D3
:1005C0000E94B3088881843030F084E390E0DF91AA
:1005D000CF910C94B308DF91CF910895CF93DF931F
:1005E000EC018881833061F480E294E00E94B308DA
:1005F00080E294E00E94B30880E294E00E94B30895
:100600008881843030F080E294E0DF91CF910C94C7
:10061000B308DF91CF910895CF93DF93EC018881E8
:10062000833061F489E290E00E94B30889E290E0AF
:100630000E94B30889E290E00E94B3088881843068
:1006400030F089E290E0DF91CF910C94B308DF9114
:10065000CF910895CF93DF93EC018881833061F4CB
:1006600084E190E00E94B30884E190E00E94B30826
:1006700084E190E00E94B3088881843030F084E106
:1006800090E0DF91CF910C94B308DF91CF91089562
:10069000CF93DF93EC018881833061F48BE290E0AB
:1006A0000E94B3088BE290E00E94B3088BE290E0D6
:1006B0000E94B3088881843030F08BE290E0DF91B3
:1006C000CF910C94B308DF91CF910895CF93DF932E
:1006D000EC018881833061F48CE490E00E94B308DF
:1006E0008CE490E00E94B3088CE490E00E94B30890
:1006F0008881843030F08CE490E0DF91CF910C94CD
:10070000B308DF91CF910895CF93DF93EC018881F7
:10071000833061F485E390E00E94B30885E390E0C4
:100720000E94B30885E390E00E94B308888184307A
:1007300030F085E390E0DF91CF910C94B308DF9126
:10074000CF910895CF93DF93EC018881833061F4DA
:100750008CE290E00E94B3088CE290E00E94B30823
:100760008CE290E00E94B3088881843030F08CE203
:1007700090E0DF91CF910C94B308DF91CF91089571
:100780000C94A203CF93DF93EC018881833061F452
:1007900080E590E00E94B30880E590E00E94B308F5
:1007A00080E590E00E94B3088881843030F080E5D5
:1007B00090E0DF91CF910C94B308DF91CF91089531
:1007C000CF93DF93EC018881833061F48FE490E074
:1007D0000E94B3088FE490E00E94B3088FE490E099
:1007E0000E94B3088881843030F08FE490E0DF917C
:1007F000CF910C94B308DF91CF910895CF93DF93FD
:10080000EC018881833061F481E390E00E94B308B9
:1008100081E390E00E94B30881E390E00E94B30876
:100820008881843030F081E390E0DF91CF910C94A7
:10083000B308DF91CF910895CF93DF93EC018881C6
:10084000833061F481E392E00E94B30881E392E097
:100850000E94B30881E392E00E94B308888184304B
:1008600030F081E392E0DF91CF910C94B308DF91F7
:10087000CF9108958FE39CE90197F1F700C0000044
:100880008091B902823061F018F4813031F00CC0EF
:10089000833019F0853021F007C086E390E002C074
:1008A0008DE290E00E9499081092B90208958FE3BA
:1008B0009CE90197F1F700C000008091B9028230F5
:1008C00049F018F4813049F00CC0833031F08530A4
:1008D00021F007C08DE292E002C088E390E00E9420
:1008E00099081092B90208958FE39CE90197F1F7F6
:1008F00000C000008091B902823049F018F48130C4
:1009000049F00CC0833031F0853021F007C08EE112
:1009100092E002C087E390E00E9499081092B90229
:1009200008958FE39CE90197F1F700C000008091E2
:10093000B902823049F018F4813049F00CC083309C
:1009400031F0853021F007C08DE292E002C08CE2E8
:1009500090E00E9499081092B90208958FE39CE9F3
:100960000197F1F700C000008091B902823049F090
:1009700018F4813049F00CC0833031F0853021F01B
:1009800007C081E29BE002C081E292E00E949908E8
:100990001092B90208958FE39CE90197F1F700C026
:1009A00000008091B902823049F018F4813061F082
:1009B0000FC0833031F0853039F00AC084E398E00D
:1009C00005C085E390E002C084E390E00E949908AE
:1009D0001092B90208958FE39CE90197F1F700C0E6
:1009E00000008091B902823049F018F4813049F05A
:1009F0000CC0833031F0853021F007C08FE196E0E4
:100A000002C080E294E00E9499081092B902089511
:100A10008FE39CE90197F1F700C000008091B902D3
:100A2000823049F018F4813049F00CC0833031F045
:100A3000853021F007C089E29CE002C089E290E0A5
:100A40000E9499081092B90208958FE39CE90197DA
:100A5000F1F700C000008091B902823049F018F42B
:100A6000813049F00CC0833031F0853021F007C06F
:100A70008BE090E002C084E190E00E94990810921F
:100A8000B90208958FE39CE90197F1F700C00000D7
:100A90008091B902823049F018F4813049F00CC0DD
:100AA000833031F0853021F007C08BE298E002C03E
:100AB0008BE290E00E9499081092B90208958FE3AA
:100AC0009CE90197F1F700C000008091B9028230E3
:100AD00049F018F4813049F00CC0833031F0853092
:100AE00021F007C08EE091E002C08CE490E00E940B
:100AF00099081092B90208958FE39CE90197F1F7E4
:100B000000C000008091B902823049F018F48130B1
:100B100049F00CC0833031F0853021F007C085E307
:100B200098E002C085E390E00E9499081092B90213
:100B300008958FE39CE90197F1F700C000008091D0
:100B4000B902823049F018F4813049F00CC083308A
:100B500031F0853021F007C082E198E002C08CE2DC
:100B600090E00E9499081092B90208958FE39CE9E1
:100B70000197F1F700C000008091B902823049F07E
:100B800018F4813049F00CC0833031F0853021F009
:100B900007C080E598E002C080E590E00E949908D7
:100BA0001092B90208958FE39CE90197F1F700C014
:100BB00000008091B902823049F018F4813049F088
:100BC0000CC0833031F0853021F007C08FE494E011
:100BD00002C08FE490E00E9499081092B902089533
:100BE0008FE39CE90197F1F700C000008091B90202
:100BF000823049F018F4813049F00CC0833031F074
:100C0000853021F007C08AE490E002C081E390E0E3
:100C10000E9499081092B90208958FE39CE9019708
:100C2000F1F700C000008091B902823049F018F459
:100C3000813049F00CC0833031F0853021F007C09D
:100C40008DE490E002C081E392E00E949908109246
:100C5000B9020895FC018081813041F491859111A0
:100C600014C09285992389F082E00895823041F47E
:100C70008185811107C08285811106C083E00895B6
:100C800086E0089585E0089584E008950E942A068C
:100C90008093B902823049F018F4813091F00895C0
:100CA000833031F0853049F008958DE490E00BC039
:100CB00081E392E00E94800804C081E392E00E94F8
:100CC000B30881E392E00C9480080E942A06809386
:100CD000B902823049F018F4813091F008958330E0
:100CE00031F0853049F008958AE490E00BC081E34B
:100CF00090E00E94800804C081E390E00E94B30865
:100D000081E390E00C9480080E942A068093B90247
:100D1000823049F018F4813091F00895833031F039
:100D2000853049F008958FE498E00BC08FE490E09F
:100D30000E94800804C08FE490E00E94B3088FE412
:100D400090E00C9480080E942A068093B9028230B9
:100D500049F018F4813091F00895833031F08530F6
:100D600049F0089580E594E00BC080E590E00E9492
:100D7000800804C080E590E00E94B30880E590E020
:100D80000C9480080E942A068093B902823049F0B0
:100D900018F4813091F00895833031F0853049F0B6
:100DA000089582E198E00BC08CE290E00E948008F8
:100DB00004C08CE290E00E94B3088CE290E00C94B6
:100DC00080080E942A068093B902823049F018F404
:100DD000813091F00895833031F0853049F00895E5
:100DE00085E398E00BC085E390E00E94800804C092
:100DF00085E390E00E94B30885E390E00C948008BE
:100E00000E942A068093B902823049F018F481309A
:100E100091F00895833031F0853049F008958EE0E7
:100E200091E00BC08CE490E00E94800804C08CE448
:100E300090E00E94B3088CE490E00C9480080E943B
:100E40002A068093B902823049F018F4813091F07B
:100E50000895833031F0853049F008958BE298E0B1
:100E60000BC08BE290E00E94800804C08BE290E00F
:100E70000E94B3088BE290E00C9480080E942A063E
:100E80008093B902823049F018F4813091F00895CE
:100E9000833031F0853049F008958BE090E00BC04D
:100EA00084E190E00E94800804C084E190E00E9408
:100EB000B30884E190E00C9480080E942A06809395
:100EC000B902823049F018F4813091F008958330EE
:100ED00031F0853049F0089589E29CE00BC089E249
:100EE00090E00E94800804C089E290E00E94B3086C
:100EF00089E290E00C9480080E942A068093B9024F
:100F0000823049F018F4813091F00895833031F047
:100F1000853049F008958FE196E00BC080E294E0BF
:100F20000E94800804C080E294E00E94B30880E23E
:100F300094E00C9480080E942A068093B9028230C3
:100F400049F018F4813081F00895833031F0853014
:100F500039F0089584E398E009C085E390E006C085
:100F600084E390E00E94B30884E390E00C9480084E
:100F70000E942A068093B902823049F018F4813029
:100F800091F00895833031F0853049F0089581E281
:100F90009BE00BC081E292E00E94800804C081E2E5
:100FA00092E00E94B30881E292E00C9480080E94D3
:100FB0002A068093B902823049F018F4813091F00A
:100FC0000895833031F0853049F008958DE292E044
:100FD0000BC08CE290E00E94800804C08CE290E09C
:100FE0000E94B3088CE290E00C9480080E942A06CC
:100FF0008093B902823049F018F4813091F008955D
:10100000833031F0853049F008958EE192E00BC0D5
:1010100087E390E00E94800804C087E390E00E948C
:10102000B30887E390E00C9480080E942A0680931E
:10103000B902823049F018F4813091F0089583307C
:1010400031F0853049F008958DE292E00BC088E3DD
:1010500090E00E94800804C088E390E00E94B308FA
:1010600088E390E00C9480080E942A068093B902DD
:10107000823049F018F4813091F00895833031F0D6
:10108000853049F008958DE290E00BC086E390E052
:101090000E94800804C086E390E00E94B30886E3C3
:1010A00090E00C9480089C013A9521153F4130F561
:1010B000BC0166277270AC01442754709C01222742
:1010C000387094FF0FC090FF02C080E101C080E043
:1010D000672B09F08062452B09F08064232B79F09F
:1010E00080680895892F8170672B09F08260452BF5
:1010F00009F08460232B19F08860089580E008953A
:10110000CF93DF93EC01805E9109089710F0209750
:1011100031F4CE010E9453080E94BA0B05C0CE01E3
:101120000E9453080E94C80B8C2FDF91CF910C9422
:10113000880ACF93DF93EC010E94320BCE01805ED0
:101140009109089710F0209739F4CE010E945308B6
:10115000DF91CF910C94C10BCE010E945308DF9117
:10116000CF910C94CF0BCF93DF93EC010E948008BA
:10117000CE01DF91CF910C94990881E0089581E030
:1011800008950C94BF0808950C94C3081F93CF933F
:10119000DF9300D000D01F92CDB7DEB749835A83CA
:1011A0006B833091820389819A81311114C0662347
:1011B00059F0222349F00E945A10182F682F898174
:1011C0009A810E94011003C00E942D10182F69817E
:1011D0007A81812F04C00E945A1069817A810F9010
:1011E0000F900F900F900F90DF91CF911F910C9463
:1011F000EE16FC01262F408151816281738184812A
:101200000C94C60881E00895CF93DF93EC0160E071
:101210000E94F908BE01DF91CF910C94C4080E948E
:101220006C190E94130A0E9494200C949E190E942B
:1012300088240C949A1980E00C94140A08950C9454
:101240001E090E94F00B0E941F092FEF84E39CE00F
:10125000215080409040E1F700C000000C94AC2881
:101260000F931F93CF93DF938C0161E00E94F908E5
:10127000EC01B8010E94E023B801CE010E94C10830
:10128000882309F44BC0B801CE010E942B24882387
:1012900009F444C0B801CE010E9438218823F1F13D
:1012A000B801CE010E942C238823C1F1B801CE01E0
:1012B0000E945621882391F1B801CE010E94882214
:1012C000882361F1F8018281882309F1CB358DE50E
:1012D000D807C1F050F4C115FCE5DF0781F0CF3D20
:1012E000DC45A9F40E94FA1519C0CC35EDE5DE07FE
:1012F00061F0CD35DD4559F40E943D1508C00E94CE
:1013000021090CC00E94461502C00E944915C8015F
:10131000DF91CF911F910F910C94BD0880E0DF9178
:10132000CF911F910F9108950C941E090E940827D8
:101330000E94140A0C949409DF92EF92FF920F938B
:101340001F93CF93DF93E82FF0E0E45CFD4FD49040
:10135000282F26952695269530E0F901E452FD4F79
:101360000491877010E0082E02C0159507950A9425
:10137000E2F701701127F901E453FD4FE490F12CDD
:10138000082E02C0F594E7940A94E2F791E0E9226E
:10139000FF24F901E454FD4FC491D0E002C0D5957B
:1013A000C7958A95E2F7C170DD270115110519F07F
:1013B00081EE0E94880AE114F10419F086EE0E9481
:1013C000880A8D2D0E94B10BEF2819F086EE0E943D
:1013D000320B012B19F081EE0E94320BCD2B51F014
:1013E0008CE2DF91CF911F910F91FF90EF90DF90F2
:1013F0000C94B10BDF91CF911F910F91FF90EF9063
:10140000DF900895982F9F709A50963010F0805D6D
:1014100001C0895A0C949C0908950C940C0A81E02F
:1014200008950C940F0A0895CF93C82F0E940D0AB7
:101430008C2F0E94110ACF910895CF93DF93CDB7DF
:10144000DEB72B970FB6F894DEBF0FBECDBF942F3B
:101450004F83252F588769877A878B874A855B85D5
:10146000452B31F02F3F31F481E09F3F19F403C049
:1014700081E001C080E080FD09C0809183039091EC
:10148000840301969093840380938303898581115B
:101490000E9489149E012F5F3F4F86E0F90111924F
:1014A0008A95E9F785E0FE013796D90101900D9202
:1014B0008A95E1F789819A814C815D81452B31F0D4
:1014C0009F3F31F491E08F3F19F403C091E001C0D8
:1014D00090E090FF09C049815A816B817C818D81A8
:1014E0009E810E94A41305C0C9010E9402098111B6
:1014F000F2CF2B960FB6F894DEBF0FBECDBFDF91B3
:10150000CF910895FC01808191810E949C100895E3
:10151000CF93882309F4A4C0C82F8238C1F40E9455
:10152000082781FD9DC069E38091BC029091BD02B6
:101530000E94A5270E94BB142FEF81EE94E021505A
:1015400080409040E1F700C0000069E319C0833893
:1015500001F50E94082780FD83C063E58091BC02ED
:101560009091BD020E94A5270E94BB142FEF81EE2F
:1015700094E0215080409040E1F700C0000063E516
:101580008091BC029091BD020E94A727CF910C943C
:10159000BB148438C1F40E94082782FD61C067E44F
:1015A0008091BC029091BD020E94A5270E94BB14AD
:1015B0002FEF81EE94E0215080409040E1F700C091
:1015C000000067E4DDCF8CEF8C0F813AD0F46C2FF4
:1015D0008091BC029091BD020E946F27882349F040
:1015E0006C2F8091BC029091BD020E94A7270E949F
:1015F000BB146C2F8091BC029091BD020E94A52764
:10160000C5CF80E28C0F883048F4C77081E001C0FC
:10161000880FCA95EAF70E946614B8CFEBE5EC0F85
:10162000E33040F4F0E0E75BFC4F808190E0CF9145
:101630000C943727E8E5EC0FE73150F4F0E0EE0FBB
:10164000FF1FE55EFC4F80819181CF910C944D2767
:10165000CD3E30F08C2F0E94431ECF910C94151F6D
:10166000CF910895882309F464C0823879F40E94E8
:10167000082781FF5EC069E38091BC029091BD02A2
:101680000E94A5270E94BB1469E310C08338B1F4FF
:101690000E94082780FF4DC063E58091BC029091B5
:1016A000BD020E94A5270E94BB1463E58091BC0285
:1016B0009091BD020E94A7270C94BB14843879F442
:1016C0000E94082782FF35C067E48091BC02909198
:1016D000BD020E94A5270E94BB1467E4E7CF9CEFE0
:1016E000980F913A10F4682FE1CF90E2980F98305C
:1016F00050F4877091E001C0990F8A95EAF7892F1D
:101700000E946C14D9CF9BE5980F933020F480E0B1
:1017100090E00C94372798E5980F973120F480E0FB
:1017200090E00C944D278D3E20F00E949E1E0C945C
:10173000151F08951F93CF93DF93182FEB010E947D
:10174000880A209741F08FE99FE00197F1F700C0E8
:1017500000002197F6CF812FDF91CF911F910C943C
:10176000320B893319F060E070E002C060E570E090
:101770000C949A0B882321F00E9466140C94BB14DD
:101780000895882321F00E946C140C94BB140895D2
:10179000882321F00E947C140C94BB1408958823A4
:1017A00021F00E9482140C94BB14089580E090E014
:1017B0000E94372780E090E00E944D270E94891404
:1017C0000E9499140E94BB140E9446200C94151F7D
:1017D0008091BC029091BD020E94A9270C94D60B67
:1017E0000E9476140C94E80BE92FE295EF704E2FCF
:1017F00050E0FA013297EE30F105B0F4EA5AFF4FAB
:101800000C94C22F803F91F018F4883E68F40EC00B
:10181000843F51F40BC0883E48F0813F29F406C054
:1018200093FB882780F9089580E0089581E008956A
:10183000FC01808191810E949C100E94F40B08950C
:101840008F929F92AF92BF92CF92DF92EF92FF92D0
:101850000F931F93CF93DF936C01EB01FC01128177
:10186000058102950F700E945C148823B9F0112342
:10187000A9F08D2F807F803421F080E28C0F88309A
:1018800068F080914D0482FD09C082E00E940B1532
:101890000E945C1491E0E82EE92601C0E12CBD2EE7
:1018A000B2942FE0B2228B2D90E0FC01EC59FF4F57
:1018B0000C94C22F9D2F9F708D2F807FF92E19F0D1
:1018C000F29490EFF922112399F0FF2009F4AAC1B4
:1018D00080E28C0F883010F0C11104C08F2D0E945F
:1018E000661403C08F2D0E947C140E94BB149AC101
:1018F0008C2F0E94320BFF2009F4B9C180E28C0FBB
:10190000883050F1CC2341F18F2D0E94821427C0E2
:101910009D2F9F708D2F807FF92E803219F0F294C9
:1019200080EFF822CC2319F0C130A1F140C08091A2
:101930004D0482FF17C0112349F0FF2029F08F2D9D
:101940000E9466140E94BB1480E06DC180E00E947A
:10195000320BFF2009F48BC18F2D0E946C140E9462
:10196000BB1485C1112371F0002341F0013031F423
:101970000E949C148F290E94A41479C10E949C1477
:101980008F290EC0002319F0013009F470C10E94A4
:10199000B1141FC0112339F0063008F068C18F2D33
:1019A0000E94BA0B64C1053008F061C112C0112356
:1019B00019F00023A1F336C1002359F0C93309F00F
:1019C00042C1FFEF27EE83E0F15020408040E1F775
:1019D00038C18F2D0E94C10B4AC18D2F86958695E7
:1019E000837019F0813059F042C1112319F0CE01F2
:1019F000937002C080E090E00E94372740C111231D
:101A000019F0CE01937002C080E090E00E944D2753
:101A100036C18C2F112319F00E94431E02C00E9470
:101A20009E1E0E94151F2BC18D2F837009F048C088
:101A3000111121C12C2F229526952770220F220FDC
:101A40006C2F6F70862F90E0A0E0B0E0022E04C0F3
:101A5000880F991FAA1FBB1F0A94D2F7C4FF10C09A
:101A60004FE050E060E070E004C0440F551F661F77
:101A7000771F2A95D2F7409550956095709503C0D1
:101A800040E050E0BA012D2F2695269523704A019B
:101A90005B01882A992AAA2ABB2AC501B4012230EF
:101AA00049F058F4213019F00E94170FE4C00E9449
:101AB000050FE1C00E94290FDEC00E94030FDBC0AA
:101AC000112319F08D2F817001C08695882309F4A8
:101AD000D2C02C2F229526952770220F220F6C2F13
:101AE0006F70862F90E0A0E0B0E0022E04C0880F57
:101AF000991FAA1FBB1F0A94D2F7C4FF10C04FE062
:101B000050E060E070E004C0440F551F661F771F6F
:101B10002A95D2F7409550956095709503C040E0A6
:101B200050E0BA012D2F2695269523704A015B01BE
:101B3000882A992AAA2ABB2AC501B401223049F071
:101B400058F4213019F00E94DC0F95C00E94CA0F92
:101B500092C00E94EE0F8FC00E943D0F8CC02D2FAF
:101B60002F70F22E112339F0822F0E94630F8C2FD9
:101B70000E94BA0B80C08C2F0E94C10B8F2D0E9437
:101B8000840F79C0C23F21F128F4C03F41F0C13F2A
:101B9000C1F044C0C33F19F1C43F79F03FC01123E5
:101BA00041F0053008F063C08D2F8F710E94A90F9E
:101BB0005EC0063008F05BC0F7CF80914D0482FF15
:101BC00018C0112339F08D2F8F710E94630F4FC001
:101BD0001123C9F38D2F8F710E94840F48C01123E8
:101BE00029F08D2F8F710E944E0F41C00E94490F26
:101BF0003EC0112351F08D2F8F71F82E0E94630F7C
:101C000063E08F2D0E94F01432C081E00E940B151A
:101C1000023068F182E00E940B1529C0112331F0D7
:101C2000002389F28C2F0E94880A21C0002391F2A0
:101C3000C93349F49FEFE7EEF3E09150E040F04004
:101C4000E1F700C000008C2F0E94320B10C04D2F16
:101C50004F706C2FC6010E94EA160E94CA100FC076
:101C60004D2F4F706C2FC6010E94ED1608C088EFF3
:101C70008B0D843020F40E9408270E94140ACE01A4
:101C80000E94F40B811105C010928403109283030B
:101C900011C0112319F00111F7CF0CC00111F4CFBD
:101CA0008091830390918403029771F78C2F0E9497
:101CB000B10BEACFEE20E9F00E94581480FD19C064
:101CC000F60112820E9452140E94630FC6010E9404
:101CD0009E0E0E945214DF91CF911F910F91FF90A1
:101CE000EF90DF90CF90BF90AF909F908F900C942B
:101CF000840FDF91CF911F910F91FF90EF90DF90B4
:101D0000CF90BF90AF909F908F9008950F931F93A7
:101D1000CF93DF93EC01688179818A810E94A710BB
:101D20008C010E9400100E94F10EB801CE010E94A9
:101D3000200CDF91CF911F910F910895CF93DF93E6
:101D4000EC01988189812B813C81232B31F08F3FDD
:101D500031F481E09F3F19F403C081E001C080E0CD
:101D600080FD1DC0CE010E943009811110C00E946B
:101D70005C148823A1F08A81882389F080914D0426
:101D800082FD0DC082E0DF91CF910C940B15CE0146
:101D90000E94860ECE01DF91CF910C940409DF9151
:101DA000CF910895CF93DF9300D000D01F92CDB78D
:101DB000DEB70F900F900F900F900F90DF91CF91A3
:101DC0000895CF93DF9300D000D000D0CDB7DEB719
:101DD00026960FB6F894DEBF0FBECDBFDF91CF9130
:101DE0000895089508950C94F20E0C94F30E0E9439
:101DF000F50E6093A2037093A3038093A4039093C2
:101E0000A5030C94D60B0C94F70E0F931F9300911F
:101E1000A2031091A3032091A4033091A503602B8A
:101E2000712B822B932B1F910F910C94F70E0F9314
:101E30001F930091A2031091A3032091A40330915A
:101E4000A50360237123822393231F910F910C9488
:101E5000F70E0F931F930091A2031091A3032091FB
:101E6000A4033091A50360277127822793271F9130
:101E70000F910C94F70E0C94F20E0E943B0F60939E
:101E80009E0370939F038093A0039093A1030C94EF
:101E9000D60B60E070E0CB010C943D0F0F931F93C5
:101EA00041E050E060E070E08A019B0104C0000F57
:101EB000111F221F331F8A95D2F7C901B8011F9144
:101EC0000F910C943D0F0F931F9341E050E060E0A1
:101ED00070E004C0440F551F661F771F8A95D2F724
:101EE00080919E0390919F03A091A003B091A103C4
:101EF0008A019B01082B192B2A2B3B2BC901B80106
:101F00001F910F910C943D0F0F931F9341E050E0F0
:101F100060E070E004C0440F551F661F771F8A956C
:101F2000D2F7409550956095709580919E03909161
:101F30009F03A091A003B091A1038A019B010823F4
:101F400019232A233B23C901B8011F910F910C9437
:101F50003D0F0F931F9341E050E060E070E004C03C
:101F6000440F551F661F771F8A95D2F780919E03F5
:101F700090919F03A091A003B091A1038A019B01BE
:101F8000082719272A273B27C901B8011F910F915C
:101F90000C943D0F0F931F9300919E0310919F038C
:101FA0002091A0033091A103602B712B822B932BE6
:101FB0001F910F910C943D0F0F931F9300919E035F
:101FC00010919F032091A0033091A10360237123FE
:101FD000822393231F910F910C943D0F0F931F9316
:101FE00000919E0310919F032091A0033091A103C3
:101FF00060277127822793271F910F910C943D0F23
:10200000089524E0929F900D1124890FE82FE69502
:10201000E695E695877051E001C0550F8A95EAF77D
:1020200085E0E89FF0011124EB57FC4F20E030E001
:1020300070E04081CB01022E02C0969587950A94EC
:10204000E2F78170819584278523842781932F5F10
:102050003F4F2530310569F7089524E0929F900D98
:102060001124890F682F669566956695982F97704D
:1020700085E0689FB001112440E050E080E0FB0162
:10208000E40FF51FEB57FC4F208130E0092E02C012
:10209000369527950A94E2F721703327042E01C064
:1020A000220F0A94EAF7822B4F5F5F4F45305105AC
:1020B00031F70895BF92CF92DF92EF92FF920F9384
:1020C0001F93CF93DF938C01C0909E03D0909F030A
:1020D000E090A003F090A1038091A2039091A3034C
:1020E000A091A403B091A503C82AD92AEA2AFB2A01
:1020F000CFE1D0E0D701C6010C2E04C0B695A7955C
:10210000979587950A94D2F780FD04C0219790F7A0
:10211000B12C07C0BC2EB8018C2F0E942518019746
:10212000A9F38B2DDF91CF911F910F91FF90EF902D
:10213000DF90CF90BF900895CF93DF93EC010E9482
:102140005A10BE010E942518DF91CF9108951F9368
:10215000CF93DF93EB0190918203992321F0CB0180
:102160000E949C1013C0882349F0CB010E945A1092
:10217000182F682FCE010E94011004C0CB010E94CD
:102180002D10182FBE01812F0E942518DF91CF91AD
:102190001F910895EF92FF920F931F93CF93DF93B8
:1021A0008C01892B09F46CC0F12CEE24E394E80136
:1021B0002196F8018491843740F4843008F051C0AE
:1021C000813081F0823019F15BC0853709F444C059
:1021D000A8F19CE7980F903708F052C08F770E94C3
:1021E000320B41C00E5F1F4FFE01849190E2980FA9
:1021F000983050F48770FE2D01C0FF0F8A95EAF7E2
:102200008F2F0E948C1414C00E94880A2DC00E5F6C
:102210001F4FFE01849190E2980F983060F4877010
:10222000FE2D01C0FF0F8A95EAF78F2F0E949214AE
:102230000E94BB1419C00E94320B16C00E5F1F4FC4
:10224000FE01C491CC2381F08FE99FE00197F1F763
:1022500000C00000C150F6CF0E5F1F4FFE01F4908A
:1022600003C00E94880A8E018F2D882309F49FCF16
:10227000EFE9FFE03197F1F700C000008150F5CFA2
:10228000DF91CF911F910F91FF90EF9008951F93D1
:10229000CF93DF93C091A60316E08091A703C817E0
:1022A00099F0D0E01C9FF0011D9FF00D1124E8551E
:1022B000FC4F4081518162817381848195810E94AC
:1022C000E10E2196C770E9CFDF91CF911F9108955C
:1022D0004091D8035091D9036091DA037091DB03E8
:1022E0008091DC039091DD030C94E10EEF92FF925C
:1022F0000F931F93CF93DF938091DD0382958F70AF
:1023000009F065C08091DA03882309F460C08091E8
:10231000A603F090A7031091D8030091D903609110
:10232000DB037091DC0391E01F3F09F090E0C09166
:10233000BA02D091BB02292F96E0E92E8F1509F43D
:1023400046C06115710521F00F3F21F030E003C058
:1023500031E001C0322F90E030FD36C0E89EF00140
:10236000E99EF00D1124DF01A855BC4F11963C9158
:102370001197301329C03C91311326C012963C911D
:102380001297311121C013964D915C911497461B01
:10239000570B4C175D07C0F48091DD038F7080618F
:1023A0008093DD03E355FC4F80818F7080618083D3
:1023B00088ED93E00E949E0EDF91CF911F910F91C7
:1023C000FF90EF900C94471101968770B7CFDF9183
:1023D000CF911F910F91FF90EF9008959F92AF9230
:1023E000BF92CF92DF92EF92FF920F931F93CF9302
:1023F000DF93CDB7DEB761970FB6F894DEBF0FBE9F
:10240000CDBF8C0185E0F801DE011D9601900D9293
:102410008A95E1F7D8011296EC909091D803E0915B
:10242000D9032091DB033091DC032115310531F014
:10243000EF3F31F481E09F3F19F403C081E001C018
:1024400080E0B82FB1709B2E80FD2DC1D8014C913A
:1024500011965C9111971396AD90BC90149788EDEE
:10246000C82E83E0D82EF090DA03B501621B730BFF
:102470002091BA023091BB02FF2009F4E5C080919F
:10248000DD036217730708F0A1C0282F207F09F031
:1024900052C05E1313C0491311C0FE2CE1100EC0D0
:1024A0008F7080618093DD030E946811C6010E94D5
:1024B0009E0E8091DD03F801858333C1AB2831F096
:1024C0005F3F31F481E04F3F19F403C081E001C068
:1024D00080E080FD03C081E08E2502C080E090E0B6
:1024E000F82FF170FF2E80FF1CC08091A603209171
:1024F000A70336E0821709F4F1C090E0389FF0019D
:10250000399FF00D1124E855FC4F6181561306C028
:102510006081461303C06281E61203C00196877092
:10252000E9CFFE2CEE2009F4FCC08091DD03816030
:102530008093DD0360C05E1312C0491310C0E11028
:102540000EC0F8018583C8010E949E0E86E0F80146
:10255000A8EDB3E001900D928A95E1F7BCC0C801E7
:102560000E94180C882361F1EE2051F12091DD03C7
:10257000822F82958F7090E0029774F08091D8033B
:102580009091D90398878F831986BB86AA862C875A
:10259000CE0107960E949E0E86E0F801A8EDB3E0FA
:1025A00001900D928A95E1F70E9476110E946811C0
:1025B0000AC05E1711F1C8010E94180C81112CC0CD
:1025C000C8010E949E0EFF24F394ABC0282F207FE9
:1025D00081F77A2DB98AA88A6E2D89890E94D20E38
:1025E00088ED93E00E949E0E86E0D6011D928A95AA
:1025F000E9F70E946811F12C94C04913DCCFE11077
:10260000DACFF8018583C8010E949E0E86E0D601CC
:102610001D928A95E9F785C0EE2091F22091DD03A5
:10262000822F82958F7090E002970CF4B5CF809145
:10263000D8039091D9039A8389831B82BD82AC828F
:102640002E83CE010196A6CF62177307F8F4FE2CF5
:10265000EE2009F4B5CF5E130BC0491309C086E024
:10266000F801A8EDB3E001900D928A95E1F759C009
:10267000C8010E94180C81118FCF8091DD03816009
:102680008093DD03C8010E949E0E4BC07A2DB98A4B
:10269000A88A6E2D89890E94D20E86E0F6011192D9
:1026A0008A95E9F718C0EE2009F48ACFC8010E9484
:1026B000180CF82E882309F483CF86E0F801A8EDE2
:1026C000B3E001900D928A95E1F788ED93E00E94C6
:1026D000820A0E9476110E94681123C04D875E878E
:1026E0008D859E850E949C10292F22952F70223067
:1026F00028F49F7039F0811105C00BC0243028F4F4
:102700009F7049F4805E883020F0C8010E949E0EC0
:102710009F2CF92C06C0D80115969C91907F91F7BB
:10272000F8CF8F2D61960FB6F894DEBF0FBECDBFE8
:10273000DF91CF911F910F91FF90EF90DF90CF909D
:10274000BF90AF909F9008951F93CF93DF93CDB725
:10275000DEB72C970FB6F894DEBF0FBECDBF4F8308
:10276000588769877A878B879C87CE0107960E9456
:10277000EE118823D1F09F8188852A853B85232B04
:1027800031F08F3F31F481E09F3F19F403C081E0C5
:1027900001C080E080FD47C04F81588569857A85FA
:1027A0008B859C850E94E10E3EC086E0FE01379637
:1027B000DE01119601900D928A95E1F7FF81E8857F
:1027C0006A857B856115710531F0EF3F31F481E059
:1027D000FF3F19F403C081E001C080E080FD23C009
:1027E0002091A70330E0C901019687709927409195
:1027F000A60350E084179507F1F1F983EA837D83FE
:102800006C8396E0929FD001939FB00D1124A85540
:10281000BC4FFE01319601900D929A95E1F780939D
:10282000A7030E94471116E08091A6039091A70389
:10283000891771F1189FC001112488559C4F0E947F
:10284000EE11882329F1E091A6031E9FF0011124C7
:10285000E855FC4F4081518162817381848195816B
:102860000E94E10E8091A60390E00196877099275F
:102870008093A603D9CF0E94F00B1092A703109269
:10288000A603E8EDF3E086E0DF011D928A95E9F703
:102890002C960FB6F894DEBF0FBECDBFDF91CF915F
:1028A0001F9108958091DE038595859585950895FE
:1028B0008091DE03877008959091DE03977081E028
:1028C00009F480E008958091EA0308959091EA0365
:1028D000892B8093EA03089580959091EA038923D8
:1028E0008093EA0308958093EA0308951092EA031F
:1028F00008958091E90308959091E903892B8093CD
:10290000E903089580959091E90389238093E90371
:1029100008951092E90308959091E803892B80931C
:10292000E803089580959091E80389238093E80354
:1029300008951092E80308958091DF0308950895A3
:102940000C949F140C94A01490914D0492FD08C017
:102950009091DF03981721F08093DF030C94A21469
:1029600008958091DF03882329F01092DF0380E02F
:102970000C94A2140895E091BC02F091BD028091E4
:10298000EA038083E091BC02F091BD0290818091C6
:10299000E903892B8083E091BC02F091BD02908114
:1029A0008091E803892B80838091DF03882381F065
:1029B000E091BC02F091BD029081892B80838091CF
:1029C000BC029091BD020E94632781110E94B11444
:1029D0008091BC029091BD020C941E270C949F1410
:1029E00090914D0492FD10C098E0899F90011124B0
:1029F000262B2093DE030E94630F8091DE038595D2
:102A0000859585950C94EE140C94630F1092DE035B
:102A100080E00C94EE142091DE0380958223809355
:102A2000DE03982F977099F430E0482F082E000CA1
:102A3000550B2417350759F090914D0492FD07C0AE
:102A40008595859585950E94840F0C9406150895AB
:102A500090914D0492FB222720F9281769F080FB02
:102A600092F990934D0480914C0490914D040E94F2
:102A7000761582E00C940B15089580914D0482FB2D
:102A8000882780F991E089270C94281581E00C941F
:102A9000281580E00C9428156FEF7FEF80E090E020
:102AA0000C941E3080E090E00E94FA2F21E0893ED5
:102AB0009E4F09F020E0822F089582E090E00C9470
:102AC000F22F83E090E00C94F22FCF9384E090E01B
:102AD0000E94F22FC82F82E290E00E94F22F2C2F4A
:102AE00030E0A901582BCA01CF910895CF93C92F87
:102AF000682F84E090E00E9400306C2F82E290E02A
:102B0000CF910C940030AB01BC018FE090E00C94AD
:102B10001230AB01BC0183E190E00C94123060E014
:102B200070E0CB010C94891560E070E0CB010E944D
:102B300083150C948F1569EE7EEF80E090E00E9483
:102B40001E3060E082E090E00E94003060E083E0B0
:102B500090E00E9400301092A2031092A303109202
:102B6000A4031092A50360E084E090E00E9400308E
:102B700060E082E290E00E94003060E085E090E05A
:102B80000E94003060E086E090E00E9400306FEF2D
:102B900087E090E00E94003040E050E0BA0188E019
:102BA00090E00E94123060E08DE090E00E940030E2
:102BB00040E050E0BA0188E190E00E94123060E00D
:102BC00087E190E00E94003040E050E0BA018CE1E3
:102BD00090E00E94123060E070E080E290E00E949D
:102BE0001E3040E050E0BA0188E190E00E941230CF
:102BF0000C9494150C949B158EE090E00E94F22F9B
:102C000091E0811101C090E0892F0895682F8EE036
:102C100090E00C9400300E944F286093F80370936A
:102C2000F9038093FA039093FB036093F40370938A
:102C3000F5038093F6039093F703089585B78068B2
:102C400085BF85B7806885BF08950C94811B089562
:102C50000C9427160C9427160C942A160C942716FD
:102C60000C942E160C9427160E941E1682E499E1ED
:102C70000E94FE260E9432160C9430160E942816DE
:102C80000C9427160E943A280E9401190E940E1ADD
:102C90000E9454200C942C169F92AF92BF92CF9218
:102CA000DF92EF92FF920F931F93CF93DF93CDB7F5
:102CB000DEB72A970FB6F894DEBF0FBECDBF0E94D5
:102CC000F41A81110E940B168CEEA82E83E0B82E08
:102CD00000E010E0902E802F0E949019D82EF50170
:102CE000C1905F01C826B1F40F5F1F4F0830110576
:102CF00089F78FEF89838A831B820E944328816032
:102D0000782F9D838C8349815A816B818D810E94AC
:102D10001D0A2FC08091FC0381FD0E949619E12CB1
:102D2000FF24F3948C2D8F21F1F00E942516882327
:102D300099F0EE829F82DF2081E009F480E08887AD
:102D40000E9443288160782F9A8789874E815F810E
:102D500068858A850E941D0AF801E451FC4F808134
:102D6000F826F08206C0E394FF0CF5E0EF12DACF0C
:102D7000BBCF0E94331F0E9408279091EB03891755
:102D8000B9F00E9408278093EB032A960FB6F894B7
:102D9000DEBF0FBECDBFDF91CF911F910F91FF908E
:102DA000EF90DF90CF90BF90AF909F900C94140A5B
:102DB0002A960FB6F894DEBF0FBECDBFDF91CF913C
:102DC0001F910F91FF90EF90DF90CF90BF90AF9049
:102DD0009F90089580E090E00895089528E2829FF2
:102DE000C0011124FC0125E0729FE00DF11D1124AA
:102DF000E60FF11DEE0FFF1FE450FF4F85919491F8
:102E00000895880F991FFC01E451FD4F859194911D
:102E10000895CF93DF930E942A18EC01811520E5D5
:102E2000920708F03FC0811540E4940708F0D2C033
:102E3000883E910500F5803E910508F002C1883A70
:102E4000910570F4853A910508F0A6C0813091058E
:102E500009F49FC008F4F2C0049708F0F2C0EEC075
:102E60008F3B910508F4A1C0803C910508F4E6C0B1
:102E7000805C9109A5C0811550E2950760F4C115E9
:102E800081E0D80708F0DDC0CD3ED10508F4D6C0FA
:102E9000CE019065D7C0811520E3920708F093C05A
:102EA0009F708EC0811545E5940708F046C08115D6
:102EB00054E5950708F0A6C0C11582E5D80718F5B6
:102EC000C11521E5D20708F088C0CE01F4E096953F
:102ED0008795FA95E1F7282F23703C2F337081E016
:102EE00090E002C0880F991F3A95E2F79C68922BF8
:102EF0002C2F2F702695269540E2249F90011124B7
:102F0000822B932B9FC09E01237033279C2F969575
:102F10009695C115D34508F065C041E050E002C068
:102F2000440F551F2A95E2F780E2989F90011124E3
:102F3000CA01822B932B9C6885C0811559E59507A2
:102F400098F4C11588E5D80708F061C0C11526E5D9
:102F5000D20708F073C08C2F0E94BE188F7190E0CA
:102F6000982F882790626EC081154AE5940708F46F
:102F700053C090568115904208F060C08D2F8F711C
:102F80000E94BE189E01332730628F71A901582B11
:102F900053C081E090E056C0855AC82FD0E0C65893
:102FA000DC4F888190E090644DC0885AC82FD0E0F3
:102FB000CC0FDD1FC45BDC4F88819981946442C0D3
:102FC0000E9401173FC09927D3FF02C0986C3AC0F6
:102FD000906C38C09F70906A35C09C2F8827816F95
:102FE000906A30C041E050E002C0440F551F2A955E
:102FF000E2F780E2989F90011124CA01822B932B63
:103000009A6820C0982F8827846F906A1BC09C2FD5
:103010008827806F906A16C08F700E94BE189E012C
:1030200094E0369527959A95E1F72F7030E0322F8E
:1030300022273069A901482BCA0104C080E090E032
:1030400001C0CE01DF91CF9108950E94EE160E943B
:10305000091708958238910569F1B0F4813391051B
:1030600009F46DC048F48932910509F463C08A32CD
:10307000910509F469C008958533910509F455C097
:1030800089339105B9F00895833E910569F138F4CB
:10309000803E9105B1F0823E910509F10895863E8A
:1030A0009105A9F1873E9105B9F1843E910509F09A
:1030B00064C023C020914C0420FD4FC021FD4DC0B1
:1030C000089580914C0480FD44C080914D0480FFA0
:1030D00044C080914C0484FD42C083EE4DC0809179
:1030E0004C0482FF38C0F5CF80914C0482FD33C080
:1030F00080914D0480FD31C0ECCF80914D0481FF63
:1031000032C080914C0484FD2AC087EE35C0809186
:103110004C0483FF26C0F5CF80914C0483FD21C071
:1031200080914D0481FD1FC0ECCF80914C0485FD42
:103130001CC01DC080914C0485FD19C016C0809133
:103140004C0486FD16C017C080914C0486FD13C048
:1031500010C089E311C082EE0FC080EE0DC080E088
:103160000BC086EE09C084EE07C089E205C085E386
:1031700003C08AE201C081E390E0089590914C047D
:1031800092FF0DC0282F2871283019F4877F8460A2
:1031900006C0282F2471243011F48B7F886093FFA0
:1031A0000DC0282F2871283119F4877E846106C04C
:1031B000282F2471243111F48B7E886120914D04D5
:1031C00020FF0DC0382F3871383019F4877F8160A7
:1031D00006C0382F3171313011F48E7F886021FFA5
:1031E0000DC0282F2871283119F4877E816106C00F
:1031F000282F2171213111F48E7E886194FD877E04
:103200000895109248041092490410924A041092B2
:103210004B040895CF92DF92EF92FF926B017C01F5
:103220000E94811B81110EC00E944F28C61AD70A26
:10323000E80AF90AC0924804D0924904E0924A048C
:10324000F0924B04FF90EF90DF90CF9008950F9392
:103250001F930E94811B882321F01F910F910C94D2
:103260004F280E944F280091480410914904209152
:103270004A0430914B04600F711F821F931F1F91EE
:103280000F91089580E008950C944C15CF930E94FF
:10329000F41A8FE39CE90197F1F700C000000E9447
:1032A000F41A0E947F1B811102C0C4E001C0C0E07B
:1032B0008C2F0E94901990E002C095958795CA9531
:1032C000E2F780FF05C00E944419CF910C94AC280E
:1032D000CF9108950C9446190E945215811102C095
:1032E0000E94FA150E945D158093FC030E946515EB
:1032F00090934D0480934C040E946A190E946115BA
:10330000682F70E080E090E00E94030F60919E03C0
:1033100070919F038091A0039091A1030C943B0FA7
:10332000E82FF0E0EA5AFB4F808108950895089550
:103330000C9497190C9498190C9497190C949C1947
:1033400008950C94A019CF93DF934EEB52E0A1E0C7
:10335000B0E020E030E0FA01E20FF31F80818F3F00
:10336000A1F0E82FE295EF70F0E061A18F70ED0120
:1033700002C0CC0FDD1F8A95E2F7CE019C2F9095FD
:10338000962391A392A1892B82A32F5F3F4F2530D3
:10339000310509F74B5F5F4FD2E0463E5D07C9F646
:1033A000DF91CF9108950F931F93CF93DF93EC019B
:1033B000062F10E085E0689FB001112440E050E046
:1033C000B1E0A0E0CA01860F971F82549D4FFC0117
:1033D00090819F3FA1F0292F22952F7030E0F901B5
:1033E00020A130E09F7002C0359527959A95E2F7AD
:1033F00020FD02C08B2F02C080E090E0A82BBB0F05
:103400004F5F5F4F45305105E9F6F801EC0FFD1FA6
:10341000A083DF91CF911F910F910895CF93DF93F8
:10342000CDB7DEB7A8970FB6F894DEBF0FBECDBFFD
:103430000E94991B8091E602811148C0FE013196DD
:1034400028E2DF011D922A95E9F724EF298325EF71
:103450002A8326EF2B8327EF2C8326EC2D8323E969
:103460002E8326E32F8322E3288723E3298721E382
:103470002A8727E92B8726E62C8724E92D8720E950
:103480002E8721E92F8725E3288B24E3298B2FEF33
:103490002A8B2B8B2C8BCF014EEB52E0BE01675D4C
:1034A0007F4F20E030E0FA01E20FF31FDC01A20FB2
:1034B000B31FAC91A0832F5F3F4F2530310599F7A3
:1034C00005964B5F5F4F8617970759F78091E60285
:1034D000811102C094E001C090E090935F0484E009
:1034E000891B80935E040E94A31988E0E6E5F4E05E
:1034F000DF01982F1D929A95E9F7EEE4F4E0DF01E1
:103500001D928A95E9F784E00E94481B0E940F09EA
:10351000A8960FB6F894DEBF0FBECDBFDF91CF9156
:103520000C94A31B0F931F93CF93DF9300D000D075
:10353000CDB7DEB70E94811B60915F048823E9F15B
:1035400019821A821B821C82862F90E08E010F5FE7
:103550001F4FB8018A5A9B4F0E94B11B882389F0E4
:1035600080915E0490E044E050E0B8018A5A9B4F9D
:103570000E94DC2F21E02093FD03892B69F410E0E9
:1035800019C08091FD038823D1F384E0F8011192E2
:103590008A95E9F71092FD03E0915E04F0E0EA5AA3
:1035A000FB4F89819A81AB81BC8180839183A28307
:1035B000B38311E00E9417090DC070E06A5A7B4F77
:1035C00080915E0490E08A5A9B4F0E94411C0E94A9
:1035D000A11910E0812F0F900F900F900F90DF91A5
:1035E000CF911F910F910895EF92FF920F931F9328
:1035F000CF93DF93CDB7DEB728970FB6F894DEBF31
:103600000FBECDBF8E010F5F1F4F88E0F8011192F2
:103610008A95E9F7F12C6F2DC8010E94D319F39414
:10362000F4E0FF12F8CF48E050E0B8018EE494E0F7
:103630000E94DC2F7C0121E0892B09F420E0E114B9
:10364000F10441F088E0F801AEE4B4E001900D929D
:103650008A95E1F760915F0470E06A5A7B4F44E01D
:103660008EE494E00E94491BEF2819F40E94921AFC
:1036700002C081E090E028960FB6F894DEBF0FBE3E
:10368000CDBFDF91CF911F910F91FF90EF900895E3
:103690000895FF920F931F93CF93DF938C01F62E23
:1036A000D72FC42F222349F081E0809300040E9489
:1036B00043289093FF038093FE03809100048823A6
:1036C000C1F08091FE039091FF030E945B28059753
:1036D00080F0EF2DFD2FD8014C2F50E0CD01801B45
:1036E000910B841795071CF48D918193F7CF10925D
:1036F0000004DF91CF911F910F91FF9008950C94DA
:10370000FC158091030481110DC00E94A12F81112D
:1037100002C082E001C081E080930304823011F492
:103720000E949C2F81E090910304913009F080E089
:1037300008950E947F1B8093E6020E94811B8111E5
:103740000C94E91B08950E94811B811102C00C9406
:10375000EB1B089581E0909104049A3008F080E01A
:1037600008950F931F93CF93DF93EC018B0180910A
:1037700004048A3038F4B801CE010E943F1C811144
:103780001DC00AC080910104909102040E945B2830
:10379000843F914080F715C0809104048F3F19F059
:1037A0008F5F80930404809104048A3060F00E944B
:1037B0004328909302048093010403C010920404F0
:1037C00002C080E001C081E0DF91CF911F910F9195
:1037D00008950C9439250C943C25EF92FF920F9399
:1037E0001F93CF93DF937901C82F880FDD0B41150D
:1037F0005105A9F08AE08C9FF0018D9FF00D1124F6
:10380000E951FD4F838194818B5F9B4F228130E092
:103810004217530708F49A01A9010E94E92FCE012B
:103820000E944626892B09F50115110501F18AE050
:103830008C9FF0018D9FF00D1124E951FD4F4581C2
:1038400050E00417150708F4A8018AE08C9FF001E6
:103850008D9FF00D1124E951FD4F668177816B5FDB
:103860007B4FC7010E94E92F02C080E001C081E0C8
:10387000DF91CF911F910F91FF90EF9008950C94DD
:10388000621D0C947E1D0F931F93CF93DF9300D086
:1038900000D0CDB7DEB760911A0470911B048091FF
:1038A0001C0490911D040E946A28643671058105EC
:1038B000910528F10E942719DC01CB010296A11D78
:1038C000B11D89839A83AB83BC8300E010E020E0C4
:1038D00030E044E050E0BE016F5F7F4F82E00E9425
:1038E000ED1B182F882361F00E944F2860931A0463
:1038F00070931B0480931C0490931D0401C011E07D
:10390000812F0F900F900F900F90DF91CF911F910B
:103910000F910895AF92BF92CF92DF92EF92FF92F4
:103920000F931F93CF93DF937C015B016A010E9489
:10393000AA1B811103C001E010E002C00AE010E000
:10394000C1E0D0E0F894B501C701F601099578947B
:10395000811115C021960C171D0794F0CC9F900182
:10396000CD9F300D300D112480E090E045E34A9565
:10397000F1F70000019682179307C1F7E3CF81E0CA
:10398000DF91CF911F910F91FF90EF90DF90CF903B
:10399000BF90AF900895AF92BF92CF92DF92EF9217
:1039A000FF920F931F93CF93DF9300D000D01F920D
:1039B000CDB7DEB75B01E0907D03F0907E0301E0C0
:1039C00010E09E012B5F3F4F40E050E060E070E070
:1039D00080E00E94ED1B182F882309F43EC0670188
:1039E0008FEFC81AD80A609116047091170480915D
:1039F0001804909119040E946A28643671058105A3
:103A0000910518F104E010E09E012F5F3F4F40E068
:103A100050E060E070E081E00E94ED1B182F64E050
:103A200070E0C6010E94552091E02D81281390E09E
:103A3000192351F10E944F286093160470931704C4
:103A4000809318049093190411C064E070E0C601DB
:103A50000E9455209D818913D5CFF70181819281E4
:103A6000A381B48189839A83AB83BC83112361F0E2
:103A700089819A81AB81BC81809312049093130455
:103A8000A0931404B0931504809112049091130430
:103A9000A0911404B0911504F50180839183A28351
:103AA000B383812F0F900F900F900F900F90DF91A5
:103AB000CF911F910F91FF90EF90DF90CF90BF902B
:103AC000AF9008950F931F93CF93DF93EC018B0179
:103AD0004BEC5CE10E948A1C882351F043E45CE1DA
:103AE000B801CE01DF91CF911F910F910C948A1CE8
:103AF00080E0DF91CF911F910F9108950F931F9355
:103B0000CF93DF93F894C0917D03D0917E03CE01D3
:103B1000019624E0FB01DC0101900D922A95E1F76A
:103B200064E070E00E94552088837894F8946D8159
:103B30007E818F81988500910E0410910F04209151
:103B4000100430911104601771078207930751F038
:103B500060930E0470930F048093100490931104EB
:103B60000E940A197894DF91CF911F910F910895C7
:103B70000E94622A0E9442160C946E2A0E94722AA7
:103B80000E944C160C948C2A0E94CA270E94492A33
:103B90000E9434160E94B81D0E94BE1D0E943E164F
:103BA000FBCF8091250480FF08C060910A0370E07C
:103BB000759567957595679521C081FF06C06091E1
:103BC0000A0370E07595679519C082FF04C0609183
:103BD0000A0370E010C090912404992399F0609139
:103BE00009039617A0F780910A03899FC001112449
:103BF00070E00E94AE2F6038710540F461157105C8
:103C000019F406C061E070E0862F08958FE70895EB
:103C100081E008958091250480FF08C0609106032B
:103C200070E0759567957595679521C081FF06C011
:103C30006091060370E07595679519C082FF04C016
:103C40006091060370E010C090912304992399F0CD
:103C5000609105039617A0F780910603899FC00124
:103C6000112470E00E94AE2F6038710540F4611598
:103C7000710519F406C061E070E0862F08958FE7A2
:103C8000089581E008958D3E21F40E94D11D819513
:103C900004C08E3E29F40E94D11D8093290408950A
:103CA0008F3E21F40E94D11D819504C0803F29F4EC
:103CB0000E94D11D809328040895893F19F40E9421
:103CC0000A1E05C08A3F31F40E940A1E8195809326
:103CD0002A0408958B3F21F40E940A1E819504C096
:103CE0008C3F29F40E940A1E80932B0408959FE0C4
:103CF000980F983078F421E030E0A90102C0440F19
:103D0000551F9A95E2F7CA0190912704892B809359
:103D1000270408958D3F21F48091250481600BC014
:103D20008E3F21F480912504826005C08F3F29F4E5
:103D30008091250484608093250408958D3E39F494
:103D40009091290497FF35C01092290459C08E3EE6
:103D500029F4909129041916BCF32BC090912804E2
:103D60008F3E29F497FF25C01092280449C0803F58
:103D700019F41916CCF31DC090912A04893F29F437
:103D80001916BCF410922A043BC08A3F19F497FF1D
:103D900010C0F8CF8B3F39F490912B0497FF09C0E6
:103DA00010922B042DC08C3F21F490912B041916F6
:103DB000BCF39FE0980F983080F421E030E0A90137
:103DC00002C0440F551F9A95E2F7CA018095909161
:103DD000270489238093270413C08D3F21F4809109
:103DE00025048E7F0BC08E3F21F4809125048D7FAA
:103DF00005C08F3F29F4809125048B7F8093250493
:103E000080912804811106C080912904811102C08B
:103E10001092240480912A04811106C080912B0401
:103E2000811102C01092230408950E94432820911A
:103E30002804211104C020912904222321F0909309
:103E400022048093210420912A04211104C020918E
:103E50002B04222321F09093200480931F0486E2F8
:103E600094E00C942927EF92FF920F931F93CF9326
:103E7000DF9300D000D000D0CDB7DEB786E0E6E219
:103E8000F4E0DE01119601900D928A95E1F7E09041
:103E90002804F090290400912A0410912B04109218
:103EA00028041092290410922A0410922B04E11085
:103EB00003C0FF2009F45DC0809121049091220489
:103EC0000E945B28AC0190912404992339F0209141
:103ED0000B0330E02417350758F04BC020911E0427
:103EE0008AE0289F900111242417350718F041C05B
:103EF0009F3F19F09F5F90932404EE2061F00E9491
:103F0000D11D1E1414F09FEF01C091E0989F902DD9
:103F1000112490932804FF2061F00E94D11D1F14EA
:103F200014F09FEF01C091E0989F902D1124909381
:103F30002904309128043323E1F02091290422231D
:103F4000C1F045EB3403C0011124992319F090937B
:103F5000280403C081E08093280435EB2303C001CB
:103F60001124992319F09093290403C081E08093D0
:103F70002904011103C0112309F45DC080911F04BD
:103F8000909120040E945B28AC0190912304992316
:103F900039F02091070330E02417350758F04BC063
:103FA000209108038AE0289F9001112424173507E7
:103FB00018F041C09F3F19F09F5F909323040023A6
:103FC00061F00E940A1E101614F09FEF01C091E0EC
:103FD000989F902D112490932A04112361F00E9440
:103FE0000A1E111614F09FEF01C091E0989F902DCA
:103FF000112490932B0430912A043323E1F0209173
:104000002B042223C1F045EB3403C0011124992372
:1040100019F090932A0403C081E080932A0435EBC1
:104020002303C0011124992319F090932B0403C09A
:1040300081E080932B048091280481110BC0809132
:104040002904811107C080912A04811103C0809145
:104050002B0481110E94151FEB82FC820D831E83AD
:1040600086E0FE013196A6E2B4E001900D928A95B9
:10407000E1F726960FB6F894DEBF0FBECDBFDF91F5
:10408000CF911F910F91FF90EF900895E6E2F4E039
:1040900086E0DF011D928A95E9F7109224041092C0
:1040A00023041092250408950895FC01680F791FD8
:1040B0008FEF91E3E617F70771F02191822728E04F
:1040C00030E087FF03C0880F892701C0880F215087
:1040D0003109B9F7EFCF0895CF93DF9397FF0DC064
:1040E000FB012281222349F0EC010E94AA20CE018B
:1040F0009F770E941D210E94F72081E0DF91CF91E0
:10410000089590916204923069F48A3040F490E00E
:1041100009966AE070E00E94AE2F875A01C086506F
:104120000C94B10B0C94020A8CE090E00E94F22FE8
:1041300090E0A0E0B0E08093620490936304A093C9
:104140006404B09365040895609162048CE090E08B
:104150000C9400300E941B27869581708093670421
:104160000E941B27817080936104809162048130DA
:1041700039F480916704882319F089E30E94B10B18
:104180000E946314809366040E94761480916204F6
:10419000813071F048F0823081F0843009F586EE8C
:1041A0000E94B10B88E11AC082EE0E94880A18C0F2
:1041B00088E193E00E94B30813C0809161048111EB
:1041C00003C083E50E94B10B82EE0E94880A8FE350
:1041D0009CE90197F1F700C0000087E50E94B10B50
:1041E0008FE39CE90197F1F700C0000008958091EA
:1041F0006204813059F030F0823089F08430C9F4A3
:1042000088E215C082EE0E94320B13C08CE20E943D
:10421000B10B80916704882361F089E308C082EEC6
:104220000E94320B80916104811103C083E50E94DA
:10423000B10B809166040C9473140F931F93CF936A
:10424000DF938C01CCE0D0E0C8010C2E02C0969523
:1042500087950A94E2F78F700E9481202497CC3FC3
:104260008FEFD80789F7DF91CF911F910F910895B4
:104270000F931F93CF93DF93EC018B01FB0182819E
:10428000882361F00E946314CE01825E9C458530D4
:10429000910520F4809362040E94A420B801CE010D
:1042A000DF91CF911F910F910C946C20CF93DF93EE
:1042B000EC01FB018281882309F426C1C430FDE5AD
:1042C000DF0760F4CB3F9CE5D90768F49E012250DC
:1042D0003C452431310508F018C105C0C236EDE572
:1042E000DE0709F012C10E94651590934D0480937A
:1042F0004C04C031FCE5DF0709F4CAC008F041C036
:10430000C8309CE5D90709F4A4C0F0F4C430FCE53A
:10431000DF0709F48CC068F4C2309CE5D90709F4C2
:1043200082C0C330DC4509F0E5C080914C04826056
:10433000DFC0C630FCE5DF0709F483C008F085C0A4
:1043400080914C048860D4C0CC309CE5D90709F436
:1043500090C068F4CA30FCE5DF0709F47EC008F0BD
:1043600084C00E94F00B80914C048068C1C0CE30A4
:104370009CE5D90709F481C008F086C080914C04FF
:1043800094C0CD3FFCE5DF0709F47BC038F5C431AC
:104390009CE5D90709F49AC058F4C231FCE5DF075F
:1043A00009F47AC008F07EC080914C048F7BA0C0D5
:1043B000CB3F9CE5D907F1F108F03FC0C531DC45A2
:1043C00009F098C080914C0482FB222720F991E0EB
:1043D000922790FB82F990FB83F98AC0C1308DE56A
:1043E000D80709F467C050F480914D04CF3FECE545
:1043F000DE07C1F108F05BC08D7F65C0C3308DE57D
:10440000D80709F471C008F46DC0C236DD4509F063
:1044100071C080914C0484FB222720F991E09227FF
:1044200090FB84F965C080914C04816061C08091EB
:104430004C0416C080914D0416C080914D048260DA
:1044400042C080914C04806153C080914C048062D2
:104450004FC080914C0480644BC080914C048860B4
:10446000846046C0826081602EC080914C048E7F43
:104470003FC080914C048D7F3BC080914C04877F6E
:1044800037C080914D0414C080914C048F7E30C0A1
:1044900080914C048F7D2CC00E94F00B80914C04C5
:1044A0008F7726C080914C04877F8B7F21C08D7FC2
:1044B0008E7F09C080914D04982F909591708E7FCA
:1044C000892B90FB81F980934D0414C00E94F00B5E
:1044D00080914C0487FB222720F991E0922790FBE2
:1044E00087F906C081E001C080E00E94061602C084
:1044F00080934C0480914C0490914D040E94761559
:104500000E94F00B80E001C081E0DF91CF9108951F
:10451000CF93DF9386319C4541F5EB010E946314F4
:10452000982F8A812091BC023091BD02882379F0B6
:104530009A7A81E009F480E080932C04911102C002
:1045400069E201C065E3C9010E94A5270AC0809104
:104550002C04811102C069E201C065E3C9010E9417
:10456000A7270E94BB1480E001C081E0DF91CF91BA
:1045700008950F931F93CF93DF93C42FD22FFC0185
:1045800082818823C9F040932F040E94432890938E
:104590002E0480932D0480E28C0F883008F057C0E1
:1045A000C77081E001C0880FCA95EAF7DF91CF910B
:1045B0001F910F910C94BA0B80912F04481330C0B7
:1045C00080912D0490912E040E945B28803F9105DC
:1045D00038F510E21D0FCD17B9F080E28C0F88304E
:1045E00040F4C77081E001C0880FCA95EAF70E94C5
:1045F000C10B183028F581E09D2F977001C0880FFE
:104600009A95EAF70E94BA0B802F0E94B10B1830DE
:10461000F0F4D77081E001C0880FDA95EAF70AC09C
:1046200080E28C0F883098F4C77081E001C0880F59
:10463000CA95EAF7DF91CF911F910F910C94C10BAE
:10464000802FDF91CF911F910F910C94B10BDF91CF
:10465000CF911F910F9108950F939C01CB01243F9F
:104660004CE5340731F188F4293DFCE53F07D9F0EA
:104670002A3D4CE5340779F1283D3C45A9F506E291
:1046800021EE41EE68ED7CE52BC0263FFCE53F07BF
:10469000E1F0A8F0273F3C4539F507E225EE46EE6C
:1046A00067EF7CE51DC007E225EE45EE69ED7CE590
:1046B00017C006E221EE40EE64EF7CE511C007E290
:1046C00025EE44EE65EF7CE50BC006E221EE42EEFE
:1046D00066EF7CE505C008E221E045EE6AED7CE589
:1046E0000E94B92280E008C0FC018281882319F071
:1046F00010922F0401C081E00F910895CF93DF93B2
:10470000EC0181E0898B8F810E94661488850E946C
:104710007C140E94BB14EA81FB81CE01069630977F
:1047200029F06C897D89DF91CF910994DF91CF9138
:104730000895EF92FF920F931F93CF93DF93FC01A5
:104740002285211136C0EC01E380F480F7E5FF1AE1
:1047500026E12E9DC0012F9D900D1124DC01A0505B
:10476000BF4F1496ED91FC9115978A5F9E4F30973D
:1047700029F054966D917C915597099586E18E9D0F
:1047800080018F9D100D112400501F4FF80187816B
:104790000E946C14F80180850E9482140E94BB1450
:1047A000188219861B861E821D8210923104109277
:1047B0003004DF91CF911F910F91FF90EF900895FA
:1047C000DF92EF92FF920F931F93CF93DF93FB0142
:1047D00022812223C1F120910C0330910D032F3F40
:1047E0003F4F89F18C01C0E0D1E0E12CF12CDD24B8
:1047F000D39480910C0390910D038E159F051CF1AD
:104800008E818823D9F089859A858017910739F49C
:1048100080913004909131040817190779F0DF86F0
:104820001C870B878989811103C0CE010E947E23DA
:10483000CE0106960E9499230E9489144FEFE41A34
:10484000F40A6696D6CFDF91CF911F910F91FF901A
:10485000EF90DF900895EF92FF920F931F93CF9305
:10486000DF939C0137552F3F310511F008F048C008
:1048700040910C0350910D034217530724F43093D9
:104880000D0320930C03FB017C01828196E1929F32
:104890008001939F100D1124E801C050DF4F888BD9
:1048A00092818E81992311F1FA86E9868F5F8E833A
:1048B0000E9443289E878D870E949C148F830E94AC
:1048C000631488870E9479149885892B8887E881EA
:1048D000F981C8018A5F9E4F309719F06C897D89F4
:1048E0000995F0923104E09230040AC0882341F027
:1048F0008989882329F0C8018A5F9E4F0E949923E5
:1049000081E0DF91CF911F910F91FF90EF9008957B
:10491000CF92DF92EF92FF920F931F93CF93DF938B
:1049200080910C0390910D030196E9F1F12C96E131
:10493000E92E0F2D10E080910C0390910D0380174C
:1049400091078CF1E09EF001E19EF00D1124E05002
:10495000FF4FC288D388C114D10419F480EFC82E48
:10496000D12CE09EE001E19ED00D1124C050DF4F1C
:104970008E818823B1F08D859E850E945B28C816A4
:10498000D90678F48989811103C0CE010E947E2363
:10499000E09EC001E19E900D11248A5F9E4F0E940F
:1049A0009923F394C6CFDF91CF911F910F91FF9080
:1049B000EF90DF90CF9008958EE14A9B02C0815026
:1049C000E1F74A9BFECF08955A9880E28A95F1F765
:1049D0005A9A0895FC012AE02A95F1F728E090E020
:1049E00080E031E040E14A95F1F7880F4A9B02C030
:1049F0008160932700C0000040E14A95F1F7215003
:104A000089F720E12A95F1F729B100C0000030E1D3
:104A10003A95F1F722FB222720F992272081920F65
:104A200090830895EF92FF920F931F93CF93DF939C
:104A30001F92CDB7DEB719828C017C01E60EF11C06
:104A40000E151F0551F00E94DC24CE0101960E9434
:104A5000EA24F80181938F01F3CF81E099819111CC
:104A600080E00F90DF91CF911F910F91FF90EF9019
:104A70000895529A5A9A089552985A9AEA9AE9E6EB
:104A8000F0E080818F7C80830895615091E001C0C7
:104A9000990F6A95EAF720E031E0992361F0492FF8
:104AA000482319F05A9A232701C05A9840E24A95A0
:104AB000F1F79695F2CF222311F05A9A01C05A9835
:104AC00080E28A95F1F75A980895FF920F931F9309
:104AD000CF93DF93EC018C01060F111DC017D10796
:104AE00041F0F9900E94E42468E08F2D0E94452552
:104AF000F5CFDF91CF911F910F91FF9008951F92F5
:104B00000F920FB60F921124EF92FF920F931F9303
:104B10002F933F934F935F936F937F938F939F93C5
:104B2000AF93BF93EF93FF93CF93DF931F92CDB7D4
:104B3000DEB719820E94DC24CE0101960E94EA248D
:104B4000A82FA695A695A6959A2F969595702A2F8B
:104B50002570920F292F237096959695920F877046
:104B600089137CC08981811179C0A43008F076C096
:104B700080E18A95F1F75A9A529AB2E0BA95F1F724
:104B800000C05A98EA2EF12CEAE0AE9FD001112421
:104B9000A951BD4F1896ED91FC9119973097B1F03E
:104BA00060917D0370917E0316962D913C9117972D
:104BB000260F371F13968D919C911497680F791FBC
:104BC00015964C91159712968C9109958AE08E9DB9
:104BD000F0018F9DF00D1124E951FD4F6581662391
:104BE00051F080917D0390917E0326813781820F61
:104BF000931F0E9465250E94E424F0E1FA95F1F7E5
:104C00005A9852985A9A80E18A95F1F78AE08E9DD7
:104C100080018F9D100D112409511D4FD80112964E
:104C20006C911297662399F080917D0390917E0399
:104C300013962D913C911497820F931F0E94122579
:104C4000D801ED91FC91811105C082E004C0D8012A
:104C5000ED91FC9188E080830E94DC240F90DF912D
:104C6000CF91FF91EF91BF91AF919F918F917F91E4
:104C70006F915F914F913F912F911F910F91FF90F5
:104C8000EF900F900FBE0F901F9018950F931F93EA
:104C9000CF93DF93843091050CF0A9C02AE0289FC0
:104CA000F001299FF00D1124E951FD4F2081318140
:104CB000232B09F49CC0EC01F894529A5A9885E091
:104CC0008A95F1F700008C2F869585709C2F957042
:104CD000890F982F9370869586958E0123E0000F9B
:104CE000111F2A95E1F7890F082B0E94E424A4E004
:104CF000AA95F1F700C068E0802F0E944525B0E139
:104D0000BA95F1F752985A9A4A9902C000C0FCCF5E
:104D100087E090E04A9B17C0019799F4529A5A9AFB
:104D20008AE08C9FF0018D9FF00D1124E951FD4F19
:104D30000190F081E02D81E08083789481E090E023
:104D400058C000C0E7CF8AE08C9F80018D9F100D76
:104D5000112409511D4FF80165816623B9F0809136
:104D60007D0390917E0326813781820F931F0E94DD
:104D7000122581110BC0529A5A9AD801ED91FC91DB
:104D800082E08083789482E090E033C00E94DC244B
:104D9000B0E2BA95F1F75A98529AE0E1EA95F1F744
:104DA0008AE08C9FF0018D9FF00D1124E951FD4F99
:104DB0006281662351F080917D0390917E0323816F
:104DC0003481820F931F0E9465250E94E4248AE0AB
:104DD0008C9FF0018D9FF00D1124E951FD4F019042
:104DE000F081E02D1082789480E090E002C084E0B1
:104DF00090E0DF91CF911F910F91089590938103DF
:104E00008093800308959093380480933704089525
:104E10000E94811B811103C0809132040895E091AA
:104E20003704F0913804309721F00190F081E02DA3
:104E3000099480E008950E9408270895E0913704BE
:104E4000F0913804309721F00280F381E02D09942D
:104E50000895E0913704F0913804309739F022E05A
:104E6000DC012C930480F581E02D099408952091B4
:104E70003504309136042817390771F090933604C1
:104E800080933504E0913704F0913804309721F095
:104E90000680F781E02D0994089520913304309124
:104EA00034042817390771F0909334048093330445
:104EB000E0913704F0913804309721F00084F185B7
:104EC000E02D09940895FC01329697E080E091501E
:104ED00029F021912223D9F38F5FF9CF089566231A
:104EE00049F0FC01329608962191621729F0E817E3
:104EF000F907D1F780E0089581E008959C01FC0155
:104F000032969FEF80E04191461789F09F3F19F458
:104F1000411101C0982F8F5F8630A9F79F3F39F06C
:104F2000F901E90FF11D97FDFA956283089508953F
:104F30009C012A5F3F4FFC014281461301C012824F
:104F4000019682179307B9F708950C947E270C9465
:104F50009827029626E0FC0111922A95E9F7089518
:104F600008950C94B02783E0809339040C94B12702
:104F7000811102C081E001C082E0809339040C9469
:104F8000B1270C94B82781E0809339040C94B127A1
:104F90000C94C327089580917004843031F10E94ED
:104FA0001B0910923A0420E488E190E00FB6F894CF
:104FB000A895809360000FBE2093600083B7817F27
:104FC000846083BF83B7816083BF7894889583B7FB
:104FD0008E7F83BF0FB6F894A8958091600088619A
:104FE00080936000109260000FBE089508950C94A5
:104FF000F627CF930E94F7270E94F41A0E94F62703
:10500000C0E08C2F0E949019811104C0CF5FC8307E
:10501000C1F701C081E0CF9108950E94F00B0C947C
:1050200096091F920F920FB60F9211248F939F93A0
:10503000AF93BF9380913A04811113C080916804AB
:1050400090916904A0916A04B0916B044196A11DEE
:10505000B11D8093680490936904A0936A04B0938F
:105060006B04BF91AF919F918F910F900FBE0F90E6
:105070001F90189582E084BD93E095BD9AEF97BD8F
:1050800080936E0008952FB7F894809168049091F2
:105090006904A0916A04B0916B042FBF08952FB7E3
:1050A000F894609168047091690480916A04909109
:1050B0006B042FBF08959C014FB7F894809168044A
:1050C00090916904A0916A04B0916B044FBF821B58
:1050D000930B0895CF92DF92EF92FF922FB7F8943F
:1050E000C0906804D0906904E0906A04F0906B046A
:1050F0002FBFA7019601261B370B480B590BCA017E
:10510000B901FF90EF90DF90CF90089578941F92AF
:105110000F920FB60F9211248F939F93AF93BF936B
:105120008091680490916904A0916A04B0916B0425
:105130000196A11DB11D8093680490936904A0930A
:105140006A04B0936B04BF91AF919F918F910F90C0
:105150000FBE0F901F90189581E08093E00080E2D1
:105160008093D8001092C9008FE19EE40197F1F777
:1051700000C0000087E090EBDC01809379049093FD
:105180007A04A0937B04B0937C049CE088E10FB682
:10519000F894A895809360000FBE90936000FFCFB5
:1051A000809146040895089522E02093E9002FEFAE
:1051B0003091E800215035FD06C035ED3A95F1F704
:1051C00000002111F5CF2091E80025FF0BC040E041
:1051D00050E066E070E00E94FE2A8091E8008E7741
:1051E0008093E8000895CF93DF9321E02093E900B6
:1051F0002FEF3091E800215035FD06C035ED3A958E
:10520000F1F700002111F5CF2091E80025FF14C02F
:10521000EC0140E050E068E070E00E94FE2A8091DE
:10522000E8008E778093E80088E0FE01AEE3B4E00A
:1052300001900D928A95E1F7DF91CF9108958093C7
:105240003B0470933D0460933C048091700484306F
:1052500001F582E08093E9008FEF9091E8008150A2
:1052600095FD06C095ED9A95F1F700008111F5CFF7
:105270008091E80085FF0DC040E050E063E070E001
:105280008BE394E00E94FE2A8091E8008E77809361
:10529000E8000895BC0184E00C941F29BC0183E060
:1052A0000C941F2980916F04811109C00E948F2CDA
:1052B0000E94EC2C8091E20084608093E2000895CB
:1052C00010926F0408950C94C82760916C0481E0DB
:1052D000611101C080E00C94B3279091700481E0CB
:1052E000943009F080E060916C040C94B82742E09F
:1052F00061EC81E00E94082C42E261EC82E00E94B5
:10530000082C9091700481E0943009F080E0609165
:105310006C040C94C12780917204833009F461C03D
:1053200030F4813071F0823009F49AC008958A30E7
:1053300009F486C08B3009F46CC0893009F0A8C02C
:1053400020C080917104813A09F0A2C08091E800E8
:10535000877F8093E8008091750490917604892B73
:1053600021F468E08EE394E003C060E080E090E028
:1053700070E00E94492B8091E8008B778093E800D1
:10538000089580917104813209F082C08091750482
:1053900090917604029708F07BC08091E800877FA7
:1053A0008093E8008091E80082FD05C08091700440
:1053B0008111F8CF6DC02091F3008091F20090E050
:1053C000922B029731F48091F100813011F08630F8
:1053D00021F48091F100809346048091E8008B775E
:1053E00053C080917104813A09F052C080917504D4
:1053F00090917604892B09F04BC08091E800877F5B
:105400008093E8008091E80080FFFCCF80911A0330
:1054100036C0809171048132D9F5809175049091E4
:105420007604892BA9F58091E800877F8093E800B6
:105430000E943D2C8091730480931A030C94F00B0E
:1054400080917104813221F58091E800877F8093FB
:10545000E8000E943D2C80917404809347040895D5
:1054600080917104813AA1F48091E800877F809354
:10547000E8008091E80080FFFCCF80914704809392
:10548000F1008091E8008E778093E8000C943D2C29
:10549000089584B7877F84BF0FB6F894A89580914C
:1054A0006000886180936000109260000FBE90E001
:1054B00080E80FB6F89480936100909361000FBE6E
:1054C0000C94C3270E948F2C0E94EC2CE2EEF0E09B
:1054D00080818460808378940C94812F8EE093E0A7
:1054E0000C940327809170048530A9F48091700496
:1054F000853079F40E94CB2780916E048823B1F324
:105500000E94F927882391F30E94E82A0E94F00B59
:10551000EDCF0C940D28089508950C948F2A292F0F
:10552000332723303105C9F060F42130310581F093
:105530002230310509F044C08BE390E026E133E0EE
:1055400043C021323105E1F02232310549F138C042
:1055500082E190E021E533E037C099278130910561
:1055600049F028F0029761F5ECEEF2E005C0E2E1C7
:10557000F3E002C0E8E0F3E0849190E09F0124C0F2
:105580006115710541F061307105D1F489E090E059
:1055900021E433E019C089E090E028E233E014C050
:1055A0006115710541F06130710551F48BE790E0B0
:1055B00023E633E009C080E490E02EED33E004C040
:1055C00080E090E020E030E0FA013183208308950C
:1055D00080E189BD82E189BD09B400FEFDCF8091E3
:1055E000D8008F7D8093D8008091E0008260809306
:1055F000E0008091E00081FDFCCF0895CF92DF9222
:10560000EF92FF920F931F93CF93DF93EC018B01E7
:105610007A010E945C2C811133C0E114F10439F04D
:10562000F70180819181081B190BC80FD91FC12C6C
:10563000D12C0115110519F18091E80085FD16C0E6
:105640008091E8008E778093E800E114F10449F03E
:10565000F70180819181C80ED91ED182C08285E078
:105660000FC00E945C2C882321F30AC0899180938B
:10567000F10001501109FFEFCF1ADF0ADACF80E005
:10568000DF91CF911F910F91FF90EF90DF90CF901E
:10569000089520917704309178042617370748F051
:1056A0006115710539F42091E8002E772093E80008
:1056B00001C0B901FC0120E06115710579F180910B
:1056C00070048823F1F18530F1F18091E80083FDC9
:1056D0003CC08091E80082FD2EC08091E80080FFF0
:1056E000EBCF2091F3008091F20090E0922B6115B6
:1056F000710551F08830910538F421912093F10023
:10570000615071090196F3CF21E0089709F020E07C
:105710008091E8008E778093E800CECF2111CFCF23
:105720000AC080917004882361F0853061F0809117
:10573000E80083FD0AC08091E80082FFF2CF80E09C
:10574000089582E0089583E0089581E0089520910E
:105750007704309178042617370748F061157105F2
:1057600039F42091E8002E772093E80001C0B901B8
:10577000FC0120E06115710591F18091700488238E
:1057800009F440C0853009F43FC08091E80083FDF2
:105790003DC08091E80082FD2FC08091E80080FF2D
:1057A000E9CF2091F3008091F20090E0922B6115F7
:1057B000710559F08830910540F424912093F1004F
:1057C0003196615071090196F2CF21E0089709F0F6
:1057D00020E08091E8008E778093E800CBCF211104
:1057E000CCCF0AC080917004882361F0853061F0CD
:1057F0008091E80083FD0AC08091E80082FFF2CF2B
:1058000080E0089582E0089583E0089581E008959E
:10581000982F973068F59093E900981739F07091B8
:10582000EC002091ED005091F00003C0242F762F62
:1058300050E021FD02C09F5FECCF3091EB003E7F36
:105840003093EB003091ED003D7F3093ED003091CF
:10585000EB0031603093EB007093EC002093ED008F
:105860005093F0002091EE0027FDE5CF80E00895F1
:105870008F708093E90081E008958091710487FF23
:1058800011C08091E80082FD05C0809170048111F3
:10589000F8CF11C08091E8008B770BC08091700425
:1058A000882349F08091E80080FFF8CF8091E800DC
:1058B0008E778093E80008952091E4003091E50010
:1058C00095E64091EC00842F817040FF23C08091C9
:1058D000E80080FD1DC080917004882399F0853018
:1058E00099F08091EB0085FD11C04091E40050914A
:1058F000E5002417350729F3915011F09A01E1CF03
:1059000084E0089582E0089583E0089581E0089599
:1059100080E008954091E80042FFDDCF08950E94A5
:10592000FD2C0E94052DE0EEF0E0808181608083F7
:10593000E8EDF0E080818F77808319BCA7EDB0E0BF
:105940008C918E7F8C9380818F7E808310926F04E8
:1059500008950F931F93CF93DF930E94FD2C0E9415
:10596000052DC8EDD0E088818F7788838881806895
:10597000888388818F7D888319BC1092700410926F
:105980006C0410926E0410926D0400EE10E0F801A9
:1059900080818B7F808388818160888342E060E0A2
:1059A00080E00E94082CE1EEF0E080818E7F808311
:1059B000E2EEF0E080818160808380818860808376
:1059C000F80180818E7F8083888180618883DF9168
:1059D000CF911F910F910895E8EDF0E080818F7EC7
:1059E0008083E7EDF0E080818160808384E082BF86
:1059F00081E080936F040C94A92CE8EDF0E08081A5
:105A00008E7F80831092E20008951092DA00109247
:105A1000E10008951F920F920FB60F9211242F9359
:105A20003F934F935F936F937F938F939F93AF9326
:105A3000BF93EF93FF938091E10082FF0BC08091B1
:105A4000E20082FF07C08091E1008B7F8093E1003C
:105A50000E94802F8091DA0080FF1FC08091D800C3
:105A600080FF1BC08091DA008E7F8093DA008091E6
:105A7000D90080FF0DC080E189BD82E189BD09B4F4
:105A800000FEFDCF81E0809370040E94522905C082
:105A900019BC109270040E9460298091E10080FF7F
:105AA00019C08091E20080FF15C08091E2008E7FD6
:105AB0008093E2008091E20080618093E200809117
:105AC000D80080628093D80019BC85E08093700470
:105AD0000E9465298091E10084FF30C08091E2003E
