:100000000C940F020C9456020C9456020C947F250B
:100010000C9456020C9456020C9456020C94560200
:100020000C9456020C9456020C94F72C0C94C92D87
:100030000C9411280C9456020C9456020C945602FF
:100040000C9456020C9456020C9456020C945602D0
:100050000C9456020C9486280C9456020C9456026A
:100060000C9456020C9456020C9456020C945602B0
:100070000C9456020C9456020C9456020C945602A0
:100080000C9456020C9456020C9456020C94560290
:100090000C9456020C9456020C9456020C94560280
:1000A0000C9456020C9456020C945602020C020C4C
:1000B000140C140C0B0C140C140C140C020C020C6D
:1000C000100C140C140C100C5A0C5A0C880C880CC4
:1000D000ED0C090D370E370E140DAF0DC20DC20D0C
:1000E000270E370E370E300E362E5D2E552F5D2E15
:1000F000552FA92ECC2E552F232F322F1C00060052
:100100000F0010000E000C001600156417680A009E
:10011000140019001A0007000D002C67025500009A
:10012000000000001D000900180001572A001300FC
:10013000117808740400120005000B0002570057E4
:100140001B001155115000000000000029001F0283
:100150002002045722022B002E00300430060557DF
:10016000350206572F042F063402105002550000A6
:100170000000000023022402250233002A000F574A
:100180002F023002105728002F00260227023000CD
:100190001350E60012500000000000002900AE00DD
:1001A000AC00AB002D022B000100AA00A9002E021A
:1001B000005C5500BE00BD0063001050E30000006D
:1001C000000000002D0024002500260001002E0064
:1001D000210022002300280027001E001F0020000D
:1001E0000100E60012500000000000000757FB006D
:1001F000ED00FC0008570957EF00EE00F0004C68D6
:100200000B57F200F900FA00010010500100000045
:10021000000000002F082B032B11300801000D57A0
:10022000517852740E572800F100FD00FE00FF00C7
:100230000000E60011500000000000000000000077
:10024000000000002A2B2800000000000000000031
:100250000000000000000029000000002C1E3420D7
:10026000212224342627252E362D3738271E1F20FD
:100270002122232425263333362E37381F04050642
:100280000708090A0B0C0D0E0F1011121314151686
:100290001718191A1B1C1D2F3130232D3504050684
:1002A0000708090A0B0C0D0E0F1011121314151666
:1002B0001718191A1B1C1D2F3130354C0000000077
:1002C000000000000000000000000000000000002E
:1002D000000000000000000000000000000000001E
:1002E0007E0F00D4FFFFFFC7000000781A0346000E
:1002F00065007200720069007300200073007700CF
:1003000065006500700000000803440050004200D2
:1003100000000403090409023B00020100A0FA09DD
:100320000400000103010100092111010001224024
:10033000000705810308000A090401000103000009
:1003400000092111010001227B0007058203200022
:100350000A1201000200000008ABC2393901000195
:1003600002000105010902A10185020901A10005A0
:100370000919012908150025019508750181020553
:1003800001093009311581257F950275088106091B
:10039000381581257F950175088106050C0A3802FC
:1003A0001581257F950175088106C0C0050109806A
:1003B000A101850319012AB700150126B70095018F
:1003C00075108100C0050C0901A101850419012ADD
:1003D000A002150126A002950175108100C005013B
:1003E0000906A101050719E029E71500250195086F
:1003F000750181029501750881010507190029FF22
:10040000150026FF009506750881000508190129C9
:1004100005950575019102950175039101C011249F
:100420001FBECFEFDAE0DEBFCDBF04B603FE27C0AC
:100430008091370490913804A0913904B0913A0426
:100440008730904BA740B04BD1F4109237041092F4
:1004500038041092390410923A0414BE84B7877F8E
:1004600084BF0FB6F894A89580916000886180934E
:100470006000109260000FBEE0E0F8E3099513E021
:10048000A0E0B1E0E6E4F0E602C005900D92AE33E4
:10049000B107D9F724E0AEE3B3E001C01D92A73362
:1004A000B207E1F70E94C41D0C9421300C940000A7
:1004B000CF93DF93EC018881833061F486E390E091
:1004C0000E94B30886E390E00E94B30886E390E0C0
:1004D0000E94B3088881843030F086E390E0DF9199
:1004E000CF910C94B308DF91CF910895CF93DF9310
:1004F000EC018881833061F488E390E00E94B308C6
:1005000088E390E00E94B30888E390E00E94B3087B
:100510008881843030F088E390E0DF91CF910C94B3
:10052000B308DF91CF910895CF93DF93EC018881D9
:10053000833061F487E390E00E94B30887E390E0A2
:100540000E94B30887E390E00E94B308888184305A
:1005500030F087E390E0DF91CF910C94B308DF9106
:10056000CF910895CF93DF93EC018881833061F4BC
:1005700081E292E00E94B30881E292E00E94B30817
:1005800081E292E00E94B3088881843030F081E2F9
:1005900092E0DF91CF910C94B308DF91CF91089551
:1005A000CF93DF93EC018881833061F484E390E0A2
:1005B0000E94B30884E390E00E94B30884E390E0D3
:1005C0000E94B3088881843030F084E390E0DF91AA
:1005D000CF910C94B308DF91CF910895CF93DF931F
:1005E000EC018881833061F480E294E00E94B308DA
:1005F00080E294E00E94B30880E294E00E94B30895
:100600008881843030F080E294E0DF91CF910C94C7
:10061000B308DF91CF910895CF93DF93EC018881E8
:10062000833061F489E290E00E94B30889E290E0AF
:100630000E94B30889E290E00E94B3088881843068
:1006400030F089E290E0DF91CF910C94B308DF9114
:10065000CF910895CF93DF93EC018881833061F4CB
:1006600084E190E00E94B30884E190E00E94B30826
:1006700084E190E00E94B3088881843030F084E106
:1006800090E0DF91CF910C94B308DF91CF91089562
:10069000CF93DF93EC018881833061F48BE290E0AB
:1006A0000E94B3088BE290E00E94B3088BE290E0D6
:1006B0000E94B3088881843030F08BE290E0DF91B3
:1006C000CF910C94B308DF91CF910895CF93DF932E
:1006D000EC018881833061F48CE490E00E94B308DF
:1006E0008CE490E00E94B3088CE490E00E94B30890
:1006F0008881843030F08CE490E0DF91CF910C94CD
:10070000B308DF91CF910895CF93DF93EC018881F7
:10071000833061F485E390E00E94B30885E390E0C4
:100720000E94B30885E390E00E94B308888184307A
:1007300030F085E390E0DF91CF910C94B308DF9126
:10074000CF910895CF93DF93EC018881833061F4DA
:100750008CE290E00E94B3088CE290E00E94B30823
:100760008CE290E00E94B3088881843030F08CE203
:1007700090E0DF91CF910C94B308DF91CF91089571
:100780000C94A203CF93DF93EC018881833061F452
:1007900080E590E00E94B30880E590E00E94B308F5
:1007A00080E590E00E94B3088881843030F080E5D5
:1007B00090E0DF91CF910C94B308DF91CF91089531
:1007C000CF93DF93EC018881833061F48FE490E074
:1007D0000E94B3088FE490E00E94B3088FE490E099
:1007E0000E94B3088881843030F08FE490E0DF917C
:1007F000CF910C94B308DF91CF910895CF93DF93FD
:10080000EC018881833061F481E390E00E94B308B9
:1008100081E390E00E94B30881E390E00E94B30876
:100820008881843030F081E390E0DF91CF910C94A7
:10083000B308DF91CF910895CF93DF93EC018881C6
:10084000833061F481E392E00E94B30881E392E097
:100850000E94B30881E392E00E94B308888184304B
:1008600030F081E392E0DF91CF910C94B308DF91F7
:10087000CF9108958FE39CE90197F1F700C0000044
:1008800080917702823061F018F4813031F00CC031
:10089000833019F0853021F007C086E390E002C074
:1008A0008DE290E00E9499081092770208958FE3FC
:1008B0009CE90197F1F700C0000080917702823037
:1008C00049F018F4813049F00CC0833031F08530A4
:1008D00021F007C08DE292E002C088E390E00E9420
:1008E00099081092770208958FE39CE90197F1F738
:1008F00000C0000080917702823049F018F4813006
:1009000049F00CC0833031F0853021F007C08EE112
:1009100092E002C087E390E00E949908109277026B
:1009200008958FE39CE90197F1F700C000008091E2
:100930007702823049F018F4813049F00CC08330DE
:1009400031F0853021F007C08DE292E002C08CE2E8
:1009500090E00E9499081092770208958FE39CE935
:100960000197F1F700C0000080917702823049F0D2
:1009700018F4813049F00CC0833031F0853021F01B
:1009800007C081E29BE002C081E292E00E949908E8
:100990001092770208958FE39CE90197F1F700C068
:1009A000000080917702823049F018F4813061F0C4
:1009B0000FC0833031F0853039F00AC084E398E00D
:1009C00005C085E390E002C084E390E00E949908AE
:1009D0001092770208958FE39CE90197F1F700C028
:1009E000000080917702823049F018F4813049F09C
:1009F0000CC0833031F0853021F007C08FE196E0E4
:100A000002C080E294E00E94990810927702089553
:100A10008FE39CE90197F1F700C000008091770215
:100A2000823049F018F4813049F00CC0833031F045
:100A3000853021F007C089E29CE002C089E290E0A5
:100A40000E9499081092770208958FE39CE901971C
:100A5000F1F700C0000080917702823049F018F46D
:100A6000813049F00CC0833031F0853021F007C06F
:100A70008BE090E002C084E190E00E94990810921F
:100A8000770208958FE39CE90197F1F700C0000019
:100A900080917702823049F018F4813049F00CC01F
:100AA000833031F0853021F007C08BE298E002C03E
:100AB0008BE290E00E9499081092770208958FE3EC
:100AC0009CE90197F1F700C0000080917702823025
:100AD00049F018F4813049F00CC0833031F0853092
:100AE00021F007C08EE091E002C08CE490E00E940B
:100AF00099081092770208958FE39CE90197F1F726
:100B000000C0000080917702823049F018F48130F3
:100B100049F00CC0833031F0853021F007C085E307
:100B200098E002C085E390E00E9499081092770255
:100B300008958FE39CE90197F1F700C000008091D0
:100B40007702823049F018F4813049F00CC08330CC
:100B500031F0853021F007C082E198E002C08CE2DC
:100B600090E00E9499081092770208958FE39CE923
:100B70000197F1F700C0000080917702823049F0C0
:100B800018F4813049F00CC0833031F0853021F009
:100B900007C080E598E002C080E590E00E949908D7
:100BA0001092770208958FE39CE90197F1F700C056
:100BB000000080917702823049F018F4813049F0CA
:100BC0000CC0833031F0853021F007C08FE494E011
:100BD00002C08FE490E00E94990810927702089575
:100BE0008FE39CE90197F1F700C000008091770244
:100BF000823049F018F4813049F00CC0833031F074
:100C0000853021F007C08AE490E002C081E390E0E3
:100C10000E9499081092770208958FE39CE901974A
:100C2000F1F700C0000080917702823049F018F49B
:100C3000813049F00CC0833031F0853021F007C09D
:100C40008DE490E002C081E392E00E949908109246
:100C500077020895FC018081813041F491859111E2
:100C600014C09285992389F082E00895823041F47E
:100C70008185811107C08285811106C083E00895B6
:100C800086E0089585E0089584E008950E942A068C
:100C900080937702823049F018F4813091F0089502
:100CA000833031F0853049F008958DE490E00BC039
:100CB00081E392E00E94800804C081E392E00E94F8
:100CC000B30881E392E00C9480080E942A06809386
:100CD0007702823049F018F4813091F00895833022
:100CE00031F0853049F008958AE490E00BC081E34B
:100CF00090E00E94800804C081E390E00E94B30865
:100D000081E390E00C9480080E942A068093770289
:100D1000823049F018F4813091F00895833031F039
:100D2000853049F008958FE498E00BC08FE490E09F
:100D30000E94800804C08FE490E00E94B3088FE412
:100D400090E00C9480080E942A06809377028230FB
:100D500049F018F4813091F00895833031F08530F6
:100D600049F0089580E594E00BC080E590E00E9492
:100D7000800804C080E590E00E94B30880E590E020
:100D80000C9480080E942A0680937702823049F0F2
:100D900018F4813091F00895833031F0853049F0B6
:100DA000089582E198E00BC08CE290E00E948008F8
:100DB00004C08CE290E00E94B3088CE290E00C94B6
:100DC00080080E942A0680937702823049F018F446
:100DD000813091F00895833031F0853049F00895E5
:100DE00085E398E00BC085E390E00E94800804C092
:100DF00085E390E00E94B30885E390E00C948008BE
:100E00000E942A0680937702823049F018F48130DC
:100E100091F00895833031F0853049F008958EE0E7
:100E200091E00BC08CE490E00E94800804C08CE448
:100E300090E00E94B3088CE490E00C9480080E943B
:100E40002A0680937702823049F018F4813091F0BD
:100E50000895833031F0853049F008958BE298E0B1
:100E60000BC08BE290E00E94800804C08BE290E00F
:100E70000E94B3088BE290E00C9480080E942A063E
:100E800080937702823049F018F4813091F0089510
:100E9000833031F0853049F008958BE090E00BC04D
:100EA00084E190E00E94800804C084E190E00E9408
:100EB000B30884E190E00C9480080E942A06809395
:100EC0007702823049F018F4813091F00895833030
:100ED00031F0853049F0089589E29CE00BC089E249
:100EE00090E00E94800804C089E290E00E94B3086C
:100EF00089E290E00C9480080E942A068093770291
:100F0000823049F018F4813091F00895833031F047
:100F1000853049F008958FE196E00BC080E294E0BF
:100F20000E94800804C080E294E00E94B30880E23E
:100F300094E00C9480080E942A0680937702823005
:100F400049F018F4813081F00895833031F0853014
:100F500039F0089584E398E009C085E390E006C085
:100F600084E390E00E94B30884E390E00C9480084E
:100F70000E942A0680937702823049F018F481306B
:100F800091F00895833031F0853049F0089581E281
:100F90009BE00BC081E292E00E94800804C081E2E5
:100FA00092E00E94B30881E292E00C9480080E94D3
:100FB0002A0680937702823049F018F4813091F04C
:100FC0000895833031F0853049F008958DE292E044
:100FD0000BC08CE290E00E94800804C08CE290E09C
:100FE0000E94B3088CE290E00C9480080E942A06CC
:100FF00080937702823049F018F4813091F008959F
:10100000833031F0853049F008958EE192E00BC0D5
:1010100087E390E00E94800804C087E390E00E948C
:10102000B30887E390E00C9480080E942A0680931E
:101030007702823049F018F4813091F008958330BE
:1010400031F0853049F008958DE292E00BC088E3DD
:1010500090E00E94800804C088E390E00E94B308FA
:1010600088E390E00C9480080E942A06809377021F
:10107000823049F018F4813091F00895833031F0D6
:10108000853049F008958DE290E00BC086E390E052
:101090000E94800804C086E390E00E94B30886E3C3
:1010A00090E00C9480089C013A9521153F4130F561
:1010B000BC0166277270AC01442754709C01222742
:1010C000387094FF0FC090FF02C080E101C080E043
:1010D000672B09F08062452B09F08064232B79F09F
:1010E00080680895892F8170672B09F08260452BF5
:1010F00009F08460232B19F08860089580E008953A
:10110000CF93DF93EC01805E9109089710F0209750
:1011100031F4CE010E9453080E94BA0B05C0CE01E3
:101120000E9453080E94C80B8C2FDF91CF910C9422
:10113000880ACF93DF93EC010E94320BCE01805ED0
:101140009109089710F0209739F4CE010E945308B6
:10115000DF91CF910C94C10BCE010E945308DF9117
:10116000CF910C94CF0BCF93DF93EC010E948008BA
:10117000CE01DF91CF910C94990881E0089581E030
:1011800008950C94BF0808950C94C3081F93CF933F
:10119000DF9300D000D01F92CDB7DEB749835A83CA
:1011A0006B833091400389819A81311114C0662389
:1011B00059F0222349F00E945A10182F682F898174
:1011C0009A810E94011003C00E942D10182F69817E
:1011D0007A81812F04C00E945A1069817A810F9010
:1011E0000F900F900F900F90DF91CF911F910C9463
:1011F000EE16FC01262F408151816281738184812A
:101200000C94C60881E00895CF93DF93EC0160E071
:101210000E94F908BE01DF91CF910C94C4080E948E
:101220006C190E94130A0E9494200C949E190E942B
:1012300088240C949A1980E00C94140A08950C9454
:101240001E090E94F00B0E941F092FEF84E39CE00F
:10125000215080409040E1F700C000000C94AC2881
:101260000F931F93CF93DF938C0161E00E94F908E5
:10127000EC01B8010E94E023B801CE010E94C10830
:10128000882309F44BC0B801CE010E942B24882387
:1012900009F444C0B801CE010E9438218823F1F13D
:1012A000B801CE010E942C238823C1F1B801CE01E0
:1012B0000E945621882391F1B801CE010E94882214
:1012C000882361F1F8018281882309F1CB358DE50E
:1012D000D807C1F050F4C115FCE5DF0781F0CF3D20
:1012E000DC45A9F40E94FA1519C0CC35EDE5DE07FE
:1012F00061F0CD35DD4559F40E943D1508C00E94CE
:1013000021090CC00E94461502C00E944915C8015F
:10131000DF91CF911F910F910C94BD0880E0DF9178
:10132000CF911F910F9108950C941E090E940827D8
:101330000E94140A0C949409DF92EF92FF920F938B
:101340001F93CF93DF93E82FF0E0E45CFD4FD49040
:10135000282F26952695269530E0F901E452FD4F79
:101360000491877010E0082E02C0159507950A9425
:10137000E2F701701127F901E453FD4FE490F12CDD
:10138000082E02C0F594E7940A94E2F791E0E9226E
:10139000FF24F901E454FD4FC491D0E002C0D5957B
:1013A000C7958A95E2F7C170DD270115110519F07F
:1013B00081EE0E94880AE114F10419F086EE0E9481
:1013C000880A8D2D0E94B10BEF2819F086EE0E943D
:1013D000320B012B19F081EE0E94320BCD2B51F014
:1013E0008CE2DF91CF911F910F91FF90EF90DF90F2
:1013F0000C94B10BDF91CF911F910F91FF90EF9063
:10140000DF900895982F9F709A50963010F0805D6D
:1014100001C0895A0C949C0908950C940C0A81E02F
:1014200008950C940F0A0895CF93C82F0E940D0AB7
:101430008C2F0E94110ACF910895CF93DF93CDB7DF
:10144000DEB72B970FB6F894DEBF0FBECDBF942F3B
:101450004F83252F588769877A878B874A855B85D5
:10146000452B31F02F3F31F481E09F3F19F403C049
:1014700081E001C080E080FD09C08091410390912E
:101480004203019690934203809341038985811121
:101490000E9489149E012F5F3F4F86E0F90111924F
:1014A0008A95E9F785E0FE013796D90101900D9202
:1014B0008A95E1F789819A814C815D81452B31F0D4
:1014C0009F3F31F491E08F3F19F403C091E001C0D8
:1014D00090E090FF09C049815A816B817C818D81A8
:1014E0009E810E94A41305C0C9010E9402098111B6
:1014F000F2CF2B960FB6F894DEBF0FBECDBFDF91B3
:10150000CF910895FC01808191810E949C100895E3
:10151000CF93882309F4A4C0C82F8238C1F40E9455
:10152000082781FD9DC069E380917A0290917B023A
:101530000E94A5270E94BB142FEF81EE94E021505A
:1015400080409040E1F700C0000069E319C0833893
:1015500001F50E94082780FD83C063E580917A022F
:1015600090917B020E94A5270E94BB142FEF81EE71
:1015700094E0215080409040E1F700C0000063E516
:1015800080917A0290917B020E94A727CF910C94C0
:10159000BB148438C1F40E94082782FD61C067E44F
:1015A00080917A0290917B020E94A5270E94BB1431
:1015B0002FEF81EE94E0215080409040E1F700C091
:1015C000000067E4DDCF8CEF8C0F813AD0F46C2FF4
:1015D00080917A0290917B020E946F27882349F0C4
:1015E0006C2F80917A0290917B020E94A7270E9423
:1015F000BB146C2F80917A0290917B020E94A527E8
:10160000C5CF80E28C0F883048F4C77081E001C0FC
:10161000880FCA95EAF70E946614B8CFEBE5EC0F85
:10162000E33040F4F0E0E95FFC4F808190E0CF913F
:101630000C943727E8E5EC0FE73150F4F0E0EE0FBB
:10164000FF1FE752FD4F80819181CF910C944D2770
:10165000CD3E30F08C2F0E94431ECF910C94151F6D
:10166000CF910895882309F464C0823879F40E94E8
:10167000082781FF5EC069E380917A0290917B0226
:101680000E94A5270E94BB1469E310C08338B1F4FF
:101690000E94082780FF4DC063E580917A029091F7
:1016A0007B020E94A5270E94BB1463E580917A0209
:1016B00090917B020E94A7270C94BB14843879F484
:1016C0000E94082782FF35C067E480917A029091DA
:1016D0007B020E94A5270E94BB1467E4E7CF9CEF22
:1016E000980F913A10F4682FE1CF90E2980F98305C
:1016F00050F4877091E001C0990F8A95EAF7892F1D
:101700000E946C14D9CF9BE5980F933020F480E0B1
:1017100090E00C94372798E5980F973120F480E0FB
:1017200090E00C944D278D3E20F00E949E1E0C945C
:10173000151F08951F93CF93DF93182FEB010E947D
:10174000880A209741F08FE99FE00197F1F700C0E8
:1017500000002197F6CF812FDF91CF911F910C943C
:10176000320B893319F060E070E002C060E570E090
:101770000C949A0B882321F00E9466140C94BB14DD
:101780000895882321F00E946C140C94BB140895D2
:10179000882321F00E947C140C94BB1408958823A4
:1017A00021F00E9482140C94BB14089580E090E014
:1017B0000E94372780E090E00E944D270E94891404
:1017C0000E9499140E94BB140E9446200C94151F7D
:1017D00080917A0290917B020E94A9270C94D60BEB
:1017E0000E9476140C94E80BE92FE295EF704E2FCF
:1017F00050E0FA013297EE30F105B0F4EA5AFF4FAB
:101800000C94AF2F803F91F018F4883E68F40EC01E
:10181000843F51F40BC0883E48F0813F29F406C054
:1018200093FB882780F9089580E0089581E008956A
:10183000FC01808191810E949C100E94F40B08950C
:101840008F929F92AF92BF92CF92DF92EF92FF92D0
:101850000F931F93CF93DF936C01EB01FC01128177
:10186000058102950F700E945C148823B9F0112342
:10187000A9F08D2F807F803421F080E28C0F88309A
:1018800068F080910B0482FD09C082E00E940B1574
:101890000E945C1491E0E82EE92601C0E12CBD2EE7
:1018A000B2942FE0B2228B2D90E0FC01EC59FF4F57
:1018B0000C94AF2F9D2F9F708D2F807FF92E19F0E4
:1018C000F29490EFF922112399F0FF2009F4AAC1B4
:1018D00080E28C0F883010F0C11104C08F2D0E945F
:1018E000661403C08F2D0E947C140E94BB149AC101
:1018F0008C2F0E94320BFF2009F4B9C180E28C0FBB
:10190000883050F1CC2341F18F2D0E94821427C0E2
:101910009D2F9F708D2F807FF92E803219F0F294C9
:1019200080EFF822CC2319F0C130A1F140C08091A2
:101930000B0482FF17C0112349F0FF2029F08F2DDF
:101940000E9466140E94BB1480E06DC180E00E947A
:10195000320BFF2009F48BC18F2D0E946C140E9462
:10196000BB1485C1112371F0002341F0013031F423
:101970000E949C148F290E94A41479C10E949C1477
:101980008F290EC0002319F0013009F470C10E94A4
:10199000B1141FC0112339F0063008F068C18F2D33
:1019A0000E94BA0B64C1053008F061C112C0112356
:1019B00019F00023A1F336C1002359F0C93309F00F
:1019C00042C1FFEF27EE83E0F15020408040E1F775
:1019D00038C18F2D0E94C10B4AC18D2F86958695E7
:1019E000837019F0813059F042C1112319F0CE01F2
:1019F000937002C080E090E00E94372740C111231D
:101A000019F0CE01937002C080E090E00E944D2753
:101A100036C18C2F112319F00E94431E02C00E9470
:101A20009E1E0E94151F2BC18D2F837009F048C088
:101A3000111121C12C2F229526952770220F220FDC
:101A40006C2F6F70862F90E0A0E0B0E0022E04C0F3
:101A5000880F991FAA1FBB1F0A94D2F7C4FF10C09A
:101A60004FE050E060E070E004C0440F551F661F77
:101A7000771F2A95D2F7409550956095709503C0D1
:101A800040E050E0BA012D2F2695269523704A019B
:101A90005B01882A992AAA2ABB2AC501B4012230EF
:101AA00049F058F4213019F00E94170FE4C00E9449
:101AB000050FE1C00E94290FDEC00E94030FDBC0AA
:101AC000112319F08D2F817001C08695882309F4A8
:101AD000D2C02C2F229526952770220F220F6C2F13
:101AE0006F70862F90E0A0E0B0E0022E04C0880F57
:101AF000991FAA1FBB1F0A94D2F7C4FF10C04FE062
:101B000050E060E070E004C0440F551F661F771F6F
:101B10002A95D2F7409550956095709503C040E0A6
:101B200050E0BA012D2F2695269523704A015B01BE
:101B3000882A992AAA2ABB2AC501B401223049F071
:101B400058F4213019F00E94DC0F95C00E94CA0F92
:101B500092C00E94EE0F8FC00E943D0F8CC02D2FAF
:101B60002F70F22E112339F0822F0E94630F8C2FD9
:101B70000E94BA0B80C08C2F0E94C10B8F2D0E9437
:101B8000840F79C0C23F21F128F4C03F41F0C13F2A
:101B9000C1F044C0C33F19F1C43F79F03FC01123E5
:101BA00041F0053008F063C08D2F8F710E94A90F9E
:101BB0005EC0063008F05BC0F7CF80910B0482FF57
:101BC00018C0112339F08D2F8F710E94630F4FC001
:101BD0001123C9F38D2F8F710E94840F48C01123E8
:101BE00029F08D2F8F710E944E0F41C00E94490F26
:101BF0003EC0112351F08D2F8F71F82E0E94630F7C
:101C000063E08F2D0E94F01432C081E00E940B151A
:101C1000023068F182E00E940B1529C0112331F0D7
:101C2000002389F28C2F0E94880A21C0002391F2A0
:101C3000C93349F49FEFE7EEF3E09150E040F04004
:101C4000E1F700C000008C2F0E94320B10C04D2F16
:101C50004F706C2FC6010E94EA160E94CA100FC076
:101C60004D2F4F706C2FC6010E94ED1608C088EFF3
:101C70008B0D843020F40E9408270E94140ACE01A4
:101C80000E94F40B811105C010924203109241038F
:101C900011C0112319F00111F7CF0CC00111F4CFBD
:101CA0008091410390914203029771F78C2F0E941B
:101CB000B10BEACFEE20E9F00E94581480FD19C064
:101CC000F60112820E9452140E94630FC6010E9404
:101CD0009E0E0E945214DF91CF911F910F91FF90A1
:101CE000EF90DF90CF90BF90AF909F908F900C942B
:101CF000840FDF91CF911F910F91FF90EF90DF90B4
:101D0000CF90BF90AF909F908F9008950F931F93A7
:101D1000CF93DF93EC01688179818A810E94A710BB
:101D20008C010E9400100E94F10EB801CE010E94A9
:101D3000200CDF91CF911F910F910895CF93DF93E6
:101D4000EC01988189812B813C81232B31F08F3FDD
:101D500031F481E09F3F19F403C081E001C080E0CD
:101D600080FD1DC0CE010E943009811110C00E946B
:101D70005C148823A1F08A81882389F080910B0468
:101D800082FD0DC082E0DF91CF910C940B15CE0146
:101D90000E94860ECE01DF91CF910C940409DF9151
:101DA000CF910895CF93DF9300D000D01F92CDB78D
:101DB000DEB70F900F900F900F900F90DF91CF91A3
:101DC0000895CF93DF9300D000D000D0CDB7DEB719
:101DD00026960FB6F894DEBF0FBECDBFDF91CF9130
:101DE0000895089508950C94F20E0C94F30E0E9439
:101DF000F50E609360037093610380936203909388
:101E000063030C94D60B0C94F70E0F931F93009161
:101E10006003109161032091620330916303602B92
:101E2000712B822B932B1F910F910C94F70E0F9314
:101E30001F93009160031091610320916203309120
:101E4000630360237123822393231F910F910C94CA
:101E5000F70E0F931F93009160031091610320917F
:101E600062033091630360277127822793271F91B4
:101E70000F910C94F70E0C94F20E0E943B0F60939E
:101E80005C0370935D0380935E0390935F030C94F7
:101E9000D60B60E070E0CB010C943D0F0F931F93C5
:101EA00041E050E060E070E08A019B0104C0000F57
:101EB000111F221F331F8A95D2F7C901B8011F9144
:101EC0000F910C943D0F0F931F9341E050E060E0A1
:101ED00070E004C0440F551F661F771F8A95D2F724
:101EE00080915C0390915D03A0915E03B0915F03CC
:101EF0008A019B01082B192B2A2B3B2BC901B80106
:101F00001F910F910C943D0F0F931F9341E050E0F0
:101F100060E070E004C0440F551F661F771F8A956C
:101F2000D2F7409550956095709580915C039091A3
:101F30005D03A0915E03B0915F038A019B010823BA
:101F400019232A233B23C901B8011F910F910C9437
:101F50003D0F0F931F9341E050E060E070E004C03C
:101F6000440F551F661F771F8A95D2F780915C0337
:101F700090915D03A0915E03B0915F038A019B0184
:101F8000082719272A273B27C901B8011F910F915C
:101F90000C943D0F0F931F9300915C0310915D0310
:101FA00020915E0330915F03602B712B822B932B6A
:101FB0001F910F910C943D0F0F931F9300915C03A1
:101FC00010915D0320915E0330915F0360237123C4
:101FD000822393231F910F910C943D0F0F931F9316
:101FE00000915C0310915D0320915E0330915F03CB
:101FF00060277127822793271F910F910C943D0F23
:10200000089524E0929F900D1124890FE82FE69502
:10201000E695E695877051E001C0550F8A95EAF77D
:1020200085E0E89FF0011124ED5BFC4F20E030E0FB
:1020300070E04081CB01022E02C0969587950A94EC
:10204000E2F78170819584278523842781932F5F10
:102050003F4F2530310569F7089524E0929F900D98
:102060001124890F682F669566956695982F97704D
:1020700085E0689FB001112440E050E080E0FB0162
:10208000E40FF51FED5BFC4F208130E0092E02C00C
:10209000369527950A94E2F721703327042E01C064
:1020A000220F0A94EAF7822B4F5F5F4F45305105AC
:1020B00031F70895BF92CF92DF92EF92FF920F9384
:1020C0001F93CF93DF938C01C0905C03D0905D038E
:1020D000E0905E03F0905F03809160039091610354
:1020E000A0916203B0916303C82AD92AEA2AFB2A85
:1020F000CFE1D0E0D701C6010C2E04C0B695A7955C
:10210000979587950A94D2F780FD04C0219790F7A0
:10211000B12C07C0BC2EB8018C2F0E942518019746
:10212000A9F38B2DDF91CF911F910F91FF90EF902D
:10213000DF90CF90BF900895CF93DF93EC010E9482
:102140005A10BE010E942518DF91CF9108951F9368
:10215000CF93DF93EB0190914003992321F0CB01C2
:102160000E949C1013C0882349F0CB010E945A1092
:10217000182F682FCE010E94011004C0CB010E94CD
:102180002D10182FBE01812F0E942518DF91CF91AD
:102190001F910895EF92FF920F931F93CF93DF93B8
:1021A0008C01892B09F46CC0F12CEE24E394E80136
:1021B0002196F8018491843740F4843008F051C0AE
:1021C000813081F0823019F15BC0853709F444C059
:1021D000A8F19CE7980F903708F052C08F770E94C3
:1021E000320B41C00E5F1F4FFE01849190E2980FA9
:1021F000983050F48770FE2D01C0FF0F8A95EAF7E2
:102200008F2F0E948C1414C00E94880A2DC00E5F6C
:102210001F4FFE01849190E2980F983060F4877010
:10222000FE2D01C0FF0F8A95EAF78F2F0E949214AE
:102230000E94BB1419C00E94320B16C00E5F1F4FC4
:10224000FE01C491CC2381F08FE99FE00197F1F763
:1022500000C00000C150F6CF0E5F1F4FFE01F4908A
:1022600003C00E94880A8E018F2D882309F49FCF16
:10227000EFE9FFE03197F1F700C000008150F5CFA2
:10228000DF91CF911F910F91FF90EF9008951F93D1
:10229000CF93DF93C091640316E080916503C81764
:1022A00099F0D0E01C9FF0011D9FF00D1124EA5918
:1022B000FC4F4081518162817381848195810E94AC
:1022C000E10E2196C770E9CFDF91CF911F9108955C
:1022D00040919603509197036091980370919903F0
:1022E00080919A0390919B030C94E10EEF92FF92E0
:1022F0000F931F93CF93DF9380919B0382958F70F1
:1023000009F065C080919803882309F460C080912A
:102310006403F09065031091960300919703609118
:10232000990370919A0391E01F3F09F090E0C091EA
:102330007802D0917902292F96E0E92E8F1509F4C1
:1023400046C06115710521F00F3F21F030E003C058
:1023500031E001C0322F90E030FD36C0E89EF00140
:10236000E99EF00D1124DF01AA59BC4F11963C9152
:102370001197301329C03C91311326C012963C911D
:102380001297311121C013964D915C911497461B01
:10239000570B4C175D07C0F480919B038F708061D1
:1023A00080939B03E559FC4F80818F70806180830F
:1023B00086E993E00E949E0EDF91CF911F910F91CD
:1023C000FF90EF900C94471101968770B7CFDF9183
:1023D000CF911F910F91FF90EF9008959F92AF9230
:1023E000BF92CF92DF92EF92FF920F931F93CF9302
:1023F000DF93CDB7DEB761970FB6F894DEBF0FBE9F
:10240000CDBF8C0185E0F801DE011D9601900D9293
:102410008A95E1F7D8011296EC9090919603E0919D
:1024200097032091990330919A032115310531F0DA
:10243000EF3F31F481E09F3F19F403C081E001C018
:1024400080E0B82FB1709B2E80FD2DC1D8014C913A
:1024500011965C9111971396AD90BC90149786E9F4
:10246000C82E83E0D82EF0909803B501621B730B41
:102470002091780230917902FF2009F4E5C0809123
:102480009B036217730708F0A1C0282F207F09F073
:1024900052C05E1313C0491311C0FE2CE1100EC0D0
:1024A0008F70806180939B030E946811C6010E9417
:1024B0009E0E80919B03F801858333C1AB2831F0D8
:1024C0005F3F31F481E04F3F19F403C081E001C068
:1024D00080E080FD03C081E08E2502C080E090E0B6
:1024E000F82FF170FF2E80FF1CC0809164032091B3
:1024F000650336E0821709F4F1C090E0389FF001DF
:10250000399FF00D1124EA59FC4F6181561306C022
:102510006081461303C06281E61203C00196877092
:10252000E9CFFE2CEE2009F4FCC080919B03816072
:1025300080939B0360C05E1312C0491310C0E1106A
:102540000EC0F8018583C8010E949E0E86E0F80146
:10255000A6E9B3E001900D928A95E1F7BCC0C801ED
:102560000E94180C882361F1EE2051F120919B0309
:10257000822F82958F7090E0029774F0809196037D
:102580009091970398878F831986BB86AA862C879C
:10259000CE0107960E949E0E86E0F801A6E9B3E000
:1025A00001900D928A95E1F70E9476110E946811C0
:1025B0000AC05E1711F1C8010E94180C81112CC0CD
:1025C000C8010E949E0EFF24F394ABC0282F207FE9
:1025D00081F77A2DB98AA88A6E2D89890E94D20E38
:1025E00086E993E00E949E0E86E0D6011D928A95B0
:1025F000E9F70E946811F12C94C04913DCCFE11077
:10260000DACFF8018583C8010E949E0E86E0D601CC
:102610001D928A95E9F785C0EE2091F220919B03E7
:10262000822F82958F7090E002970CF4B5CF809145
:102630009603909197039A8389831B82BD82AC8213
:102640002E83CE010196A6CF62177307F8F4FE2CF5
:10265000EE2009F4B5CF5E130BC0491309C086E024
:10266000F801A6E9B3E001900D928A95E1F759C00F
:10267000C8010E94180C81118FCF80919B0381604B
:1026800080939B03C8010E949E0E4BC07A2DB98A8D
:10269000A88A6E2D89890E94D20E86E0F6011192D9
:1026A0008A95E9F718C0EE2009F48ACFC8010E9484
:1026B000180CF82E882309F483CF86E0F801A6E9E8
:1026C000B3E001900D928A95E1F786E993E00E94CC
:1026D000820A0E9476110E94681123C04D875E878E
:1026E0008D859E850E949C10292F22952F70223067
:1026F00028F49F7039F0811105C00BC0243028F4F4
:102700009F7049F4805E883020F0C8010E949E0EC0
:102710009F2CF92C06C0D80115969C91907F91F7BB
:10272000F8CF8F2D61960FB6F894DEBF0FBECDBFE8
:10273000DF91CF911F910F91FF90EF90DF90CF909D
:10274000BF90AF909F9008951F93CF93DF93CDB725
:10275000DEB72C970FB6F894DEBF0FBECDBF4F8308
:10276000588769877A878B879C87CE0107960E9456
:10277000EE118823D1F09F8188852A853B85232B04
:1027800031F08F3F31F481E09F3F19F403C081E0C5
:1027900001C080E080FD47C04F81588569857A85FA
:1027A0008B859C850E94E10E3EC086E0FE01379637
:1027B000DE01119601900D928A95E1F7FF81E8857F
:1027C0006A857B856115710531F0EF3F31F481E059
:1027D000FF3F19F403C081E001C080E080FD23C009
:1027E0002091650330E0C9010196877099274091D7
:1027F000640350E084179507F1F1F983EA837D8340
:102800006C8396E0929FD001939FB00D1124AA593A
:10281000BC4FFE01319601900D929A95E1F780939D
:1028200065030E94471116E080916403909165034F
:10283000891771F1189FC00111248A599C4F0E9479
:10284000EE11882329F1E09164031E9FF001112409
:10285000EA59FC4F40815181628173818481958165
:102860000E94E10E8091640390E0019687709927A1
:1028700080936403D9CF0E94F00B109265031092ED
:102880006403E6E9F3E086E0DF011D928A95E9F74B
:102890002C960FB6F894DEBF0FBECDBFDF91CF915F
:1028A0001F91089580919C03859585958595089540
:1028B00080919C038770089590919C03977081E0AC
:1028C00009F480E008958091A80308959091A803E9
:1028D000892B8093A803089580959091A80389235C
:1028E0008093A80308958093A80308951092A803E5
:1028F00008958091A70308959091A703892B809351
:10290000A703089580959091A70389238093A70337
:1029100008951092A70308959091A603892B8093A0
:10292000A603089580959091A60389238093A6031A
:1029300008951092A603089580919D030895089527
:102940000C949F140C94A01490910B0492FD08C059
:1029500090919D03981721F080939D030C94A214ED
:10296000089580919D03882329F010929D0380E0B3
:102970000C94A2140895E0917A02F0917B02809168
:10298000A8038083E0917A02F0917B02908180918C
:10299000A703892B8083E0917A02F0917B029081DA
:1029A0008091A603892B808380919D03882381F0E9
:1029B000E0917A02F0917B029081892B8083809153
:1029C0007A0290917B020E94632781110E94B114C8
:1029D00080917A0290917B020C941E270C949F1494
:1029E00090910B0492FD10C098E0899F90011124F2
:1029F000262B20939C030E94630F80919C03859556
:102A0000859585950C94EE140C94630F10929C039D
:102A100080E00C94EE1420919C0380958223809397
:102A20009C03982F977099F430E0482F082E000CE3
:102A3000550B2417350759F090910B0492FD07C0F0
:102A40008595859585950E94840F0C9406150895AB
:102A500090910B0492FB222720F9281769F080FB44
:102A600092F990930B0480910A0490910B040E94B8
:102A7000761582E00C940B15089580910B0482FB6F
:102A8000882780F991E089270C94281581E00C941F
:102A9000281580E00C9428156FEF7FEF80E090E020
:102AA0000C940B3080E090E00E94E72F21E0893EFB
:102AB0009E4F09F020E0822F089582E090E00C9470
:102AC000DF2F83E090E00C94DF2FCF9384E090E041
:102AD0000E94DF2FC82F82E290E00E94DF2F2C2F70
:102AE00030E0A901582BCA01CF910895CF93C92F87
:102AF000682F84E090E00E94ED2F6C2F82E290E03E
:102B0000CF910C94ED2FAB01BC018FE090E00C94C1
:102B1000FF2FAB01BC0183E190E00C94FF2F60E03C
:102B200070E0CB010C94891560E070E0CB010E944D
:102B300083150C948F1569EE7EEF80E090E00E9483
:102B40000B3060E082E090E00E94ED2F60E083E0D7
:102B500090E00E94ED2F109260031092610310929A
:102B600062031092630360E084E090E00E94ED2F26
:102B700060E082E290E00E94ED2F60E085E090E06E
:102B80000E94ED2F60E086E090E00E94ED2F6FEF55
:102B900087E090E00E94ED2F40E050E0BA0188E02D
:102BA00090E00E94FF2F60E08DE090E00E94ED2F0A
:102BB00040E050E0BA0188E190E00E94FF2F60E021
:102BC00087E190E00E94ED2F40E050E0BA018CE1F7
:102BD00090E00E94FF2F60E070E080E290E00E94B1
:102BE0000B3040E050E0BA0188E190E00E94FF2FF6
:102BF0000C9494150C949B158EE090E00E94DF2FAE
:102C000091E0811101C090E0892F0895682F8EE036
:102C100090E00C94ED2F0E944F286093B6037093C0
:102C2000B7038093B8039093B9036093B203709392
:102C3000B3038093B4039093B503089585B7806878
:102C400085BF85B7806885BF08950C94811B089562
:102C50000C9427160C9427160C942A160C942716FD
:102C60000C942E160C9427160E941E1682E499E1ED
:102C70000E94FE260E9432160C9430160E942816DE
:102C80000C9427160E943A280E9401190E940E1ADD
:102C90000E9454200C942C169F92AF92BF92CF9218
:102CA000DF92EF92FF920F931F93CF93DF93CDB7F5
:102CB000DEB72A970FB6F894DEBF0FBECDBF0E94D5
:102CC000F41A81110E940B168AEAA82E83E0B82E0E
:102CD00000E010E0902E802F0E949019D82EF50170
:102CE000C1905F01C826B1F40F5F1F4F0830110576
:102CF00089F78FEF89838A831B820E944328816032
:102D0000782F9D838C8349815A816B818D810E94AC
:102D10001D0A2FC08091BA0381FD0E949619E12CF3
:102D2000FF24F3948C2D8F21F1F00E942516882327
:102D300099F0EE829F82DF2081E009F480E08887AD
:102D40000E9443288160782F9A8789874E815F810E
:102D500068858A850E941D0AF801E655FC4F80812E
:102D6000F826F08206C0E394FF0CF5E0EF12DACF0C
:102D7000BBCF0E94331F0E9408279091A903891797
:102D8000B9F00E9408278093A9032A960FB6F894F9
:102D9000DEBF0FBECDBFDF91CF911F910F91FF908E
:102DA000EF90DF90CF90BF90AF909F900C94140A5B
:102DB0002A960FB6F894DEBF0FBECDBFDF91CF913C
:102DC0001F910F91FF90EF90DF90CF90BF90AF9049
:102DD0009F90089580E090E00895089528E2829FF2
:102DE000C0011124FC0125E0729FE00DF11D1124AA
:102DF000E60FF11DEE0FFF1FE450FF4F85919491F8
:102E00000895880F991FFC01E451FD4F859194911D
:102E10000895CF93DF930E942A18EC01811520E5D5
:102E2000920708F03FC0811540E4940708F0D2C033
:102E3000883E910500F5803E910508F002C1883A70
:102E4000910570F4853A910508F0A6C0813091058E
:102E500009F49FC008F4F2C0049708F0F2C0EEC075
:102E60008F3B910508F4A1C0803C910508F4E6C0B1
:102E7000805C9109A5C0811550E2950760F4C115E9
:102E800081E0D80708F0DDC0CD3ED10508F4D6C0FA
:102E9000CE019065D7C0811520E3920708F093C05A
:102EA0009F708EC0811545E5940708F046C08115D6
:102EB00054E5950708F0A6C0C11582E5D80718F5B6
:102EC000C11521E5D20708F088C0CE01F4E096953F
:102ED0008795FA95E1F7282F23703C2F337081E016
:102EE00090E002C0880F991F3A95E2F79C68922BF8
:102EF0002C2F2F702695269540E2249F90011124B7
:102F0000822B932B9FC09E01237033279C2F969575
:102F10009695C115D34508F065C041E050E002C068
:102F2000440F551F2A95E2F780E2989F90011124E3
:102F3000CA01822B932B9C6885C0811559E59507A2
:102F400098F4C11588E5D80708F061C0C11526E5D9
:102F5000D20708F073C08C2F0E94BE188F7190E0CA
:102F6000982F882790626EC081154AE5940708F46F
:102F700053C090568115904208F060C08D2F8F711C
:102F80000E94BE189E01332730628F71A901582B11
:102F900053C081E090E056C0855AC82FD0E0C85C8D
:102FA000DC4F888190E090644DC0885AC82FD0E0F3
:102FB000CC0FDD1FC65FDC4F88819981946442C0CD
:102FC0000E9401173FC09927D3FF02C0986C3AC0F6
:102FD000906C38C09F70906A35C09C2F8827816F95
:102FE000906A30C041E050E002C0440F551F2A955E
:102FF000E2F780E2989F90011124CA01822B932B63
:103000009A6820C0982F8827846F906A1BC09C2FD5
:103010008827806F906A16C08F700E94BE189E012C
:1030200094E0369527959A95E1F72F7030E0322F8E
:1030300022273069A901482BCA0104C080E090E032
:1030400001C0CE01DF91CF9108950E94EE160E943B
:10305000091708958238910569F1B0F4813391051B
:1030600009F46DC048F48932910509F463C08A32CD
:10307000910509F469C008958533910509F455C097
:1030800089339105B9F00895833E910569F138F4CB
:10309000803E9105B1F0823E910509F10895863E8A
:1030A0009105A9F1873E9105B9F1843E910509F09A
:1030B00064C023C020910A0420FD4FC021FD4DC0F3
:1030C000089580910A0480FD44C080910B0480FF24
:1030D00044C080910A0484FD42C083EE4DC08091BB
:1030E0000A0482FF38C0F5CF80910A0482FD33C004
:1030F00080910B0480FD31C0ECCF80910B0481FFE7
:1031000032C080910A0484FD2AC087EE35C08091C8
:103110000A0483FF26C0F5CF80910A0483FD21C0F5
:1031200080910B0481FD1FC0ECCF80910A0485FDC6
:103130001CC01DC080910A0485FD19C016C0809175
:103140000A0486FD16C017C080910A0486FD13C0CC
:1031500010C089E311C082EE0FC080EE0DC080E088
:103160000BC086EE09C084EE07C089E205C085E386
:1031700003C08AE201C081E390E0089590910A04BF
:1031800092FF0DC0282F2871283019F4877F8460A2
:1031900006C0282F2471243011F48B7F886093FFA0
:1031A0000DC0282F2871283119F4877E846106C04C
:1031B000282F2471243111F48B7E886120910B0417
:1031C00020FF0DC0382F3871383019F4877F8160A7
:1031D00006C0382F3171313011F48E7F886021FFA5
:1031E0000DC0282F2871283119F4877E816106C00F
:1031F000282F2171213111F48E7E886194FD877E04
:103200000895109206041092070410920804109278
:1032100009040895CF92DF92EF92FF926B017C0137
:103220000E94811B81110EC00E944F28C61AD70A26
:10323000E80AF90AC0920604D0920704E092080452
:10324000F0920904FF90EF90DF90CF9008950F93D4
:103250001F930E94811B882321F01F910F910C94D2
:103260004F280E944F2800910604109107042091D6
:10327000080430910904600F711F821F931F1F9172
:103280000F91089580E008950C944C15CF930E94FF
:10329000F41A8FE39CE90197F1F700C000000E9447
:1032A000F41A0E947F1B811102C0C4E001C0C0E07B
:1032B0008C2F0E94901990E002C095958795CA9531
:1032C000E2F780FF05C00E944419CF910C94AC280E
:1032D000CF9108950C9446190E945215811102C095
:1032E0000E94FA150E945D158093BA030E9465152D
:1032F00090930B0480930A040E946A190E9461153E
:10330000682F70E080E090E00E94030F60915C0302
:1033100070915D0380915E0390915F030C943B0F6D
:10332000E82FF0E0EC5EFB4F80810895089508954A
:103330000C9497190C9498190C9497190C949C1947
:1033400008950C94A019CF93DF934CE752E0A1E0CD
:10335000B0E020E030E0FA01E20FF31F80818F3F00
:10336000A1F0E82FE295EF70F0E061A18F70ED0120
:1033700002C0CC0FDD1F8A95E2F7CE019C2F9095FD
:10338000962391A392A1892B82A32F5F3F4F2530D3
:10339000310509F74B5F5F4FD2E0443A5D07C9F64C
:1033A000DF91CF9108950F931F93CF93DF93EC019B
:1033B000062F10E085E0689FB001112440E050E046
:1033C000B1E0A0E0CA01860F971F84589D4FFC0111
:1033D00090819F3FA1F0292F22952F7030E0F901B5
:1033E00020A130E09F7002C0359527959A95E2F7AD
:1033F00020FD02C08B2F02C080E090E0A82BBB0F05
:103400004F5F5F4F45305105E9F6F801EC0FFD1FA6
:10341000A083DF91CF911F910F910895CF93DF93F8
:10342000CDB7DEB7A8970FB6F894DEBF0FBECDBFFD
:103430000E94991B8091A402811148C0FE0131961F
:1034400028E2DF011D922A95E9F724EF298325EF71
:103450002A8326EF2B8327EF2C8326EC2D8323E969
:103460002E8326E32F8322E3288723E3298721E382
:103470002A8727E92B8726E62C8724E92D8720E950
:103480002E8721E92F8725E3288B24E3298B2FEF33
:103490002A8B2B8B2C8BCF014CE752E0BE01675D52
:1034A0007F4F20E030E0FA01E20FF31FDC01A20FB2
:1034B000B31FAC91A0832F5F3F4F2530310599F7A3
:1034C00005964B5F5F4F8617970759F78091A402C7
:1034D000811102C094E001C090E090931D0484E04B
:1034E000891B80931C040E94A31988E0E4E1F4E0A6
:1034F000DF01982F1D929A95E9F7ECE0F4E0DF01E7
:103500001D928A95E9F784E00E94481B0E940F09EA
:10351000A8960FB6F894DEBF0FBECDBFDF91CF9156
:103520000C94A31B0F931F93CF93DF9300D000D075
:10353000CDB7DEB70E94811B60911D048823E9F19D
:1035400019821A821B821C82862F90E08E010F5FE7
:103550001F4FB8018C5E9B4F0E94B11B882389F0DE
:1035600080911C0490E044E050E0B8018C5E9B4FD9
:103570000E94C92F21E02093BB03892B69F410E03E
:1035800019C08091BB038823D1F384E0F801119224
:103590008A95E9F71092BB03E0911C04F0E0EC5E21
:1035A000FB4F89819A81AB81BC8180839183A28307
:1035B000B38311E00E9417090DC070E06C5E7B4F71
:1035C00080911C0490E08C5E9B4F0E94411C0E94E5
:1035D000A11910E0812F0F900F900F900F90DF91A5
:1035E000CF911F910F910895EF92FF920F931F9328
:1035F000CF93DF93CDB7DEB728970FB6F894DEBF31
:103600000FBECDBF8E010F5F1F4F88E0F8011192F2
:103610008A95E9F7F12C6F2DC8010E94D319F39414
:10362000F4E0FF12F8CF48E050E0B8018CE094E0FD
:103630000E94C92F7C0121E0892B09F420E0E114CC
:10364000F10441F088E0F801ACE0B4E001900D92A3
:103650008A95E1F760911D0470E06C5E7B4F44E059
:103660008CE094E00E94491BEF2819F40E94921A02
:1036700002C081E090E028960FB6F894DEBF0FBE3E
:10368000CDBFDF91CF911F910F91FF90EF900895E3
:103690000895FF920F931F93CF93DF938C01F62E23
:1036A000D72FC42F222349F081E08093BE030E94CC
:1036B00043289093BD038093BC038091BE0388236D
:1036C000C1F08091BC039091BD030E945B280597D7
:1036D00080F0EF2DFD2FD8014C2F50E0CD01801B45
:1036E000910B841795071CF48D918193F7CF10925D
:1036F000BE03DF91CF911F910F91FF9008950C941D
:10370000FC158091C10381110DC00E948E2F811183
:1037100002C082E001C081E08093C103823011F4D5
:103720000E94892F81E09091C103913009F080E0DF
:1037300008950E947F1B8093A4020E94811B811127
:103740000C94E91B08950E94811B811102C00C9406
:10375000EB1B089581E09091C2039A3008F080E05D
:1037600008950F931F93CF93DF93EC018B0180910A
:10377000C2038A3038F4B801CE010E943F1C811187
:103780001DC00AC08091BF039091C0030E945B28B6
:10379000843F914080F715C08091C2038F3F19F09C
:1037A0008F5F8093C2038091C2038A3060F00E94D1
:1037B00043289093C0038093BF0303C01092C203B9
:1037C00002C080E001C081E0DF91CF911F910F9195
:1037D00008950C9439250C943C25EF92FF920F9399
:1037E0001F93CF93DF937901C82F880FDD0B41150D
:1037F0005105A9F08AE08C9FF0018D9FF00D1124F6
:10380000EB55FD4F838194818D539C4F228130E095
:103810004217530708F49A01A9010E94D62FCE013E
:103820000E944626892B09F50115110501F18AE050
:103830008C9FF0018D9FF00D1124EB55FD4F4581BC
:1038400050E00417150708F4A8018AE08C9FF001E6
:103850008D9FF00D1124EB55FD4F668177816D53DF
:103860007C4FC7010E94D62F02C080E001C081E0DA
:10387000DF91CF911F910F91FF90EF9008950C94DD
:10388000621D0C947E1D0F931F93CF93DF9300D086
:1038900000D0CDB7DEB76091D8037091D903809185
:1038A000DA039091DB030E946A2864367105810572
:1038B000910528F10E942719DC01CB010296A11D78
:1038C000B11D89839A83AB83BC8300E010E020E0C4
:1038D00030E044E050E0BE016F5F7F4F82E00E9425
:1038E000ED1B182F882361F00E944F286093D803A6
:1038F0007093D9038093DA039093DB0301C011E046
:10390000812F0F900F900F900F90DF91CF911F910B
:103910000F910895AF92BF92CF92DF92EF92FF92F4
:103920000F931F93CF93DF937C015B016A010E9489
:10393000AA1B811103C001E010E002C00AE010E000
:10394000C1E0D0E0F894B501C701F601099578947B
:10395000811115C021960C171D0794F0CC9F900182
:10396000CD9F300D300D112480E090E045E34A9565
:10397000F1F70000019682179307C1F7E3CF81E0CA
:10398000DF91CF911F910F91FF90EF90DF90CF903B
:10399000BF90AF900895AF92BF92CF92DF92EF9217
:1039A000FF920F931F93CF93DF9300D000D01F920D
:1039B000CDB7DEB75B01E0903B03F0903C0301E044
:1039C00010E09E012B5F3F4F40E050E060E070E070
:1039D00080E00E94ED1B182F882309F43EC0670188
:1039E0008FEFC81AD80A6091D4037091D5038091E3
:1039F000D6039091D7030E946A2864367105810529
:103A0000910518F104E010E09E012F5F3F4F40E068
:103A100050E060E070E081E00E94ED1B182F64E050
:103A200070E0C6010E94552091E02D81281390E09E
:103A3000192351F10E944F286093D4037093D5034A
:103A40008093D6039093D70311C064E070E0C60161
:103A50000E9455209D818913D5CFF70181819281E4
:103A6000A381B48189839A83AB83BC83112361F0E2
:103A700089819A81AB81BC818093D0039093D103DB
:103A8000A093D203B093D3038091D0039091D1033C
:103A9000A091D203B091D303F50180839183A283D7
:103AA000B383812F0F900F900F900F900F90DF91A5
:103AB000CF911F910F91FF90EF90DF90CF90BF902B
:103AC000AF9008950F931F93CF93DF93EC018B0179
:103AD0004BEC5CE10E948A1C882351F043E45CE1DA
:103AE000B801CE01DF91CF911F910F910C948A1CE8
:103AF00080E0DF91CF911F910F9108950F931F9355
:103B0000CF93DF93F894C0913B03D0913C03CE0157
:103B1000019624E0FB01DC0101900D922A95E1F76A
:103B200064E070E00E94552088837894F8946D8159
:103B30007E818F8198850091CC031091CD032091D7
:103B4000CE033091CF03601771078207930751F0BE
:103B50006093CC037093CD038093CE039093CF03F7
:103B60000E940A197894DF91CF911F910F910895C7
:103B70000E944F2A0E9442160C945B2A0E945F2AE0
:103B80000E944C160C94792A0E94CA270E94362A59
:103B90000E9434160E94B81D0E94BE1D0E943E164F
:103BA000FBCF8091E30380FF08C06091C80270E002
:103BB000759567957595679521C081FF06C06091E1
:103BC000C80270E07595679519C082FF04C06091C6
:103BD000C80270E010C09091E203992399F06091BF
:103BE000C7029617A0F78091C802899FC0011124CF
:103BF00070E00E949B2F6038710540F461157105DB
:103C000019F406C061E070E0862F08958FE70895EB
:103C100081E008958091E30380FF08C06091C402B1
:103C200070E0759567957595679521C081FF06C011
:103C30006091C40270E07595679519C082FF04C059
:103C40006091C40270E010C09091E103992399F053
:103C50006091C3029617A0F78091C402899FC001AA
:103C6000112470E00E949B2F6038710540F46115AB
:103C7000710519F406C061E070E0862F08958FE7A2
:103C8000089581E008958D3E21F40E94D11D819513
:103C900004C08E3E29F40E94D11D8093E70308954D
:103CA0008F3E21F40E94D11D819504C0803F29F4EC
:103CB0000E94D11D8093E6030895893F19F40E9464
:103CC0000A1E05C08A3F31F40E940A1E8195809326
:103CD000E80308958B3F21F40E940A1E819504C0D9
:103CE0008C3F29F40E940A1E8093E90308959FE007
:103CF000980F983078F421E030E0A90102C0440F19
:103D0000551F9A95E2F7CA019091E503892B80939C
:103D1000E50308958D3F21F48091E30381600BC09A
:103D20008E3F21F48091E303826005C08F3F29F428
:103D30008091E30384608093E30308958D3E39F41A
:103D40009091E70397FF35C01092E70359C08E3E6C
:103D500029F49091E7031916BCF32BC09091E60368
:103D60008F3E29F497FF25C01092E60349C0803F9B
:103D700019F41916CCF31DC09091E803893F29F47A
:103D80001916BCF41092E8033BC08A3F19F497FF60
:103D900010C0F8CF8B3F39F49091E90397FF09C029
:103DA0001092E9032DC08C3F21F49091E90319167C
:103DB000BCF39FE0980F983080F421E030E0A90137
:103DC00002C0440F551F9A95E2F7CA018095909161
:103DD000E50389238093E50313C08D3F21F480918F
:103DE000E3038E7F0BC08E3F21F48091E3038D7F30
:103DF00005C08F3F29F48091E3038B7F8093E30319
:103E00008091E603811106C08091E703811102C011
:103E10001092E2038091E803811106C08091E903CA
:103E2000811102C01092E10308950E94432820915D
:103E3000E603211104C02091E703222321F090938F
:103E4000E0038093DF032091E803211104C0209157
:103E5000E903222321F09093DE038093DD0384EEB7
:103E600093E00C942927EF92FF920F931F93CF9327
:103E7000DF9300D000D000D0CDB7DEB786E0E4EE0F
:103E8000F3E0DE01119601900D928A95E1F7E09042
:103E9000E603F090E7030091E8031091E903109224
:103EA000E6031092E7031092E8031092E903E11091
:103EB00003C0FF2009F45DC08091DF039091E0030F
:103EC0000E945B28AC019091E203992339F0209184
:103ED000C90230E02417350758F04BC02091DC03AD
:103EE0008AE0289F900111242417350718F041C05B
:103EF0009F3F19F09F5F9093E203EE2061F00E94D4
:103F0000D11D1E1414F09FEF01C091E0989F902DD9
:103F100011249093E603FF2061F00E94D11D1F142D
:103F200014F09FEF01C091E0989F902D1124909381
:103F3000E7033091E6033323E1F02091E7032223E6
:103F4000C1F045EB3403C0011124992319F090937B
:103F5000E60303C081E08093E60335EB2303C00151
:103F60001124992319F09093E70303C081E0809313
:103F7000E703011103C0112309F45DC08091DD0343
:103F80009091DE030E945B28AC019091E10399239C
:103F900039F02091C50230E02417350758F04BC0A6
:103FA0002091C6028AE0289F90011124241735072A
:103FB00018F041C09F3F19F09F5F9093E1030023E9
:103FC00061F00E940A1E101614F09FEF01C091E0EC
:103FD000989F902D11249093E803112361F00E9483
:103FE0000A1E111614F09FEF01C091E0989F902DCA
:103FF00011249093E9033091E8033323E1F02091F9
:10400000E9032223C1F045EB3403C00111249923B5
:1040100019F09093E80303C081E08093E80335EB47
:104020002303C0011124992319F09093E90303C0DD
:1040300081E08093E9038091E60381110BC08091B8
:10404000E703811107C08091E803811103C08091CB
:10405000E90381110E94151FEB82FC820D831E83F0
:1040600086E0FE013196A4EEB3E001900D928A95B0
:10407000E1F726960FB6F894DEBF0FBECDBFDF91F5
:10408000CF911F910F91FF90EF900895E4EEF3E030
:1040900086E0DF011D928A95E9F71092E203109203
:1040A000E1031092E30308950895FC01680F791F5E
:1040B0008FEF91E3E617F70771F02191822728E04F
:1040C00030E087FF03C0880F892701C0880F215087
:1040D0003109B9F7EFCF0895CF93DF9397FF0DC064
:1040E000FB012281222349F0EC010E94AA20CE018B
:1040F0009F770E941D210E94F72081E0DF91CF91E0
:10410000089590912004923069F48A3040F490E050
:1041100009966AE070E00E949B2F875A01C0865082
:104120000C94B10B0C94020A8CE090E00E94DF2FFB
:1041300090E0A0E0B0E08093200490932104A0934D
:104140002204B09323040895609120048CE090E051
:104150000C94ED2F0E941B27869581708093250477
:104160000E941B27817080931F048091200481305E
:1041700039F480912504882319F089E30E94B10B5A
:104180000E946314809324040E947614809120047A
:10419000813071F048F0823081F0843009F586EE8C
:1041A0000E94B10B88E11AC082EE0E94880A18C0F2
:1041B00088E193E00E94B30813C080911F0481112D
:1041C00003C083E50E94B10B82EE0E94880A8FE350
:1041D0009CE90197F1F700C0000087E50E94B10B50
:1041E0008FE39CE90197F1F700C0000008958091EA
:1041F0002004813059F030F0823089F08430C9F4E5
:1042000088E215C082EE0E94320B13C08CE20E943D
:10421000B10B80912504882361F089E308C082EE08
:104220000E94320B80911F04811103C083E50E941C
:10423000B10B809124040C9473140F931F93CF93AC
:10424000DF938C01CCE0D0E0C8010C2E02C0969523
:1042500087950A94E2F78F700E9481202497CC3FC3
:104260008FEFD80789F7DF91CF911F910F910895B4
:104270000F931F93CF93DF93EC018B01FB0182819E
:10428000882361F00E946314CE01825E9C458530D4
:10429000910520F4809320040E94A420B801CE014F
:1042A000DF91CF911F910F910C946C20CF93DF93EE
:1042B000EC01FB018281882309F426C1C430FDE5AD
:1042C000DF0760F4CB3F9CE5D90768F49E012250DC
:1042D0003C452431310508F018C105C0C236EDE572
:1042E000DE0709F012C10E94651590930B048093BC
:1042F0000A04C031FCE5DF0709F4CAC008F041C078
:10430000C8309CE5D90709F4A4C0F0F4C430FCE53A
:10431000DF0709F48CC068F4C2309CE5D90709F4C2
:1043200082C0C330DC4509F0E5C080910A04826098
:10433000DFC0C630FCE5DF0709F483C008F085C0A4
:1043400080910A048860D4C0CC309CE5D90709F478
:1043500090C068F4CA30FCE5DF0709F47EC008F0BD
:1043600084C00E94F00B80910A048068C1C0CE30E6
:104370009CE5D90709F481C008F086C080910A0441
:1043800094C0CD3FFCE5DF0709F47BC038F5C431AC
:104390009CE5D90709F49AC058F4C231FCE5DF075F
:1043A00009F47AC008F07EC080910A048F7BA0C017
:1043B000CB3F9CE5D907F1F108F03FC0C531DC45A2
:1043C00009F098C080910A0482FB222720F991E02D
:1043D000922790FB82F990FB83F98AC0C1308DE56A
:1043E000D80709F467C050F480910B04CF3FECE587
:1043F000DE07C1F108F05BC08D7F65C0C3308DE57D
:10440000D80709F471C008F46DC0C236DD4509F063
:1044100071C080910A0484FB222720F991E0922741
:1044200090FB84F965C080910A04816061C080912D
:104430000A0416C080910B0416C080910B048260A0
:1044400042C080910A04806153C080910A04806256
:104450004FC080910A0480644BC080910A04886038
:10446000846046C0826081602EC080910A048E7F85
:104470003FC080910A048D7F3BC080910A04877FF2
:1044800037C080910B0414C080910A048F7E30C025
:1044900080910A048F7D2CC00E94F00B80910A0449
:1044A0008F7726C080910A04877F8B7F21C08D7F04
:1044B0008E7F09C080910B04982F909591708E7F0C
:1044C000892B90FB81F980930B0414C00E94F00BA0
:1044D00080910A0487FB222720F991E0922790FB24
:1044E00087F906C081E001C080E00E94061602C084
:1044F00080930A0480910A0490910B040E9476151F
:104500000E94F00B80E001C081E0DF91CF9108951F
:10451000CF93DF9386319C4541F5EB010E946314F4
:10452000982F8A8120917A0230917B02882379F03A
:104530009A7A81E009F480E08093EA03911102C045
:1045400069E201C065E3C9010E94A5270AC0809104
:10455000EA03811102C069E201C065E3C9010E945A
:10456000A7270E94BB1480E001C081E0DF91CF91BA
:1045700008950F931F93CF93DF93C42FD22FFC0185
:1045800082818823C9F04093ED030E9443289093D1
:10459000EC038093EB0380E28C0F883008F057C067
:1045A000C77081E001C0880FCA95EAF7DF91CF910B
:1045B0001F910F910C94BA0B8091ED03481330C0FA
:1045C0008091EB039091EC030E945B28803F910562
:1045D00038F510E21D0FCD17B9F080E28C0F88304E
:1045E00040F4C77081E001C0880FCA95EAF70E94C5
:1045F000C10B183028F581E09D2F977001C0880FFE
:104600009A95EAF70E94BA0B802F0E94B10B1830DE
:10461000F0F4D77081E001C0880FDA95EAF70AC09C
:1046200080E28C0F883098F4C77081E001C0880F59
:10463000CA95EAF7DF91CF911F910F910C94C10BAE
:10464000802FDF91CF911F910F910C94B10BDF91CF
:10465000CF911F910F9108950F939C01CB01243F9F
:104660004CE5340731F188F4293DFCE53F07D9F0EA
:104670002A3D4CE5340779F1283D3C45A9F506E291
:1046800021EE41EE68ED7CE52BC0263FFCE53F07BF
:10469000E1F0A8F0273F3C4539F507E225EE46EE6C
:1046A00067EF7CE51DC007E225EE45EE69ED7CE590
:1046B00017C006E221EE40EE64EF7CE511C007E290
:1046C00025EE44EE65EF7CE50BC006E221EE42EEFE
:1046D00066EF7CE505C008E221E045EE6AED7CE589
:1046E0000E94B92280E008C0FC018281882319F071
:1046F0001092ED0301C081E00F910895CF93DF93F5
:10470000EC0181E0898B8F810E94661488850E946C
:104710007C140E94BB14EA81FB81CE01069630977F
:1047200029F06C897D89DF91CF910994DF91CF9138
:104730000895EF92FF920F931F93CF93DF93FC01A5
:104740002285211136C0EC01E380F480F7E5FF1AE1
:1047500026E12E9DC0012F9D900D1124DC01A0505B
:10476000BF4F1496ED91FC9115978A5F9E4F30973D
:1047700029F054966D917C915597099586E18E9D0F
:1047800080018F9D100D112400501F4FF80187816B
:104790000E946C14F80180850E9482140E94BB1450
:1047A000188219861B861E821D821092EF031092BA
:1047B000EE03DF91CF911F910F91FF90EF9008953D
:1047C000DF92EF92FF920F931F93CF93DF93FB0142
:1047D00022812223C1F12091CA023091CB022F3FC6
:1047E0003F4F89F18C01C0E0D1E0E12CF12CDD24B8
:1047F000D3948091CA029091CB028E159F051CF133
:104800008E818823D9F089859A858017910739F49C
:104810008091EE039091EF030817190779F0DF8676
:104820001C870B878989811103C0CE010E947E23DA
:10483000CE0106960E9499230E9489144FEFE41A34
:10484000F40A6696D6CFDF91CF911F910F91FF901A
:10485000EF90DF900895EF92FF920F931F93CF9305
:10486000DF939C0137552F3F310511F008F048C008
:104870004091CA025091CB024217530724F430935F
:10488000CB022093CA02FB017C01828196E1929FB8
:104890008001939F100D1124E801C050DF4F888BD9
:1048A00092818E81992311F1FA86E9868F5F8E833A
:1048B0000E9443289E878D870E949C148F830E94AC
:1048C000631488870E9479149885892B8887E881EA
:1048D000F981C8018A5F9E4F309719F06C897D89F4
:1048E0000995F092EF03E092EE030AC0882341F0AD
:1048F0008989882329F0C8018A5F9E4F0E949923E5
:1049000081E0DF91CF911F910F91FF90EF9008957B
:10491000CF92DF92EF92FF920F931F93CF93DF938B
:104920008091CA029091CB020196E9F1F12C96E1B7
:10493000E92E0F2D10E08091CA029091CB028017D2
:1049400091078CF1E09EF001E19EF00D1124E05002
:10495000FF4FC288D388C114D10419F480EFC82E48
:10496000D12CE09EE001E19ED00D1124C050DF4F1C
:104970008E818823B1F08D859E850E945B28C816A4
:10498000D90678F48989811103C0CE010E947E2363
:10499000E09EC001E19E900D11248A5F9E4F0E940F
:1049A0009923F394C6CFDF91CF911F910F91FF9080
:1049B000EF90DF90CF9008958EE14A9B02C0815026
:1049C000E1F74A9BFECF08955A9880E28A95F1F765
:1049D0005A9A0895FC012AE02A95F1F728E090E020
:1049E00080E031E040E14A95F1F7880F4A9B02C030
:1049F0008160932700C0000040E14A95F1F7215003
:104A000089F720E12A95F1F729B100C0000030E1D3
:104A10003A95F1F722FB222720F992272081920F65
:104A200090830895EF92FF920F931F93CF93DF939C
:104A30001F92CDB7DEB719828C017C01E60EF11C06
:104A40000E151F0551F00E94DC24CE0101960E9434
:104A5000EA24F80181938F01F3CF81E099819111CC
:104A600080E00F90DF91CF911F910F91FF90EF9019
:104A70000895529A5A9A089552985A9AEA9AE9E6EB
:104A8000F0E080818F7C80830895615091E001C0C7
:104A9000990F6A95EAF720E031E0992361F0492FF8
:104AA000482319F05A9A232701C05A9840E24A95A0
:104AB000F1F79695F2CF222311F05A9A01C05A9835
:104AC00080E28A95F1F75A980895FF920F931F9309
:104AD000CF93DF93EC018C01060F111DC017D10796
:104AE00041F0F9900E94E42468E08F2D0E94452552
:104AF000F5CFDF91CF911F910F91FF9008951F92F5
:104B00000F920FB60F921124EF92FF920F931F9303
:104B10002F933F934F935F936F937F938F939F93C5
:104B2000AF93BF93EF93FF93CF93DF931F92CDB7D4
:104B3000DEB719820E94DC24CE0101960E94EA248D
:104B4000A82FA695A695A6959A2F969595702A2F8B
:104B50002570920F292F237096959695920F877046
:104B600089137CC08981811179C0A43008F076C096
:104B700080E18A95F1F75A9A529AB2E0BA95F1F724
:104B800000C05A98EA2EF12CEAE0AE9FD001112421
:104B9000AB55BD4F1896ED91FC9119973097B1F038
:104BA00060913B0370913C0316962D913C911797B1
:104BB000260F371F13968D919C911497680F791FBC
:104BC00015964C91159712968C9109958AE08E9DB9
:104BD000F0018F9DF00D1124EB55FD4F658166238B
:104BE00051F080913B0390913C0326813781820FE5
:104BF000931F0E9465250E94E424F0E1FA95F1F7E5
:104C00005A9852985A9A80E18A95F1F78AE08E9DD7
:104C100080018F9D100D11240B551D4FD801129648
:104C20006C911297662399F080913B0390913C031D
:104C300013962D913C911497820F931F0E94122579
:104C4000D801ED91FC91811105C082E004C0D8012A
:104C5000ED91FC9188E080830E94DC240F90DF912D
:104C6000CF91FF91EF91BF91AF919F918F917F91E4
:104C70006F915F914F913F912F911F910F91FF90F5
:104C8000EF900F900FBE0F901F9018950F931F93EA
:104C9000CF93DF93843091050CF0A9C02AE0289FC0
:104CA000F001299FF00D1124EB55FD4F208131813A
:104CB000232B09F49CC0EC01F894529A5A9885E091
:104CC0008A95F1F700008C2F869585709C2F957042
:104CD000890F982F9370869586958E0123E0000F9B
:104CE000111F2A95E1F7890F082B0E94E424A4E004
:104CF000AA95F1F700C068E0802F0E944525B0E139
:104D0000BA95F1F752985A9A4A9902C000C0FCCF5E
:104D100087E090E04A9B17C0019799F4529A5A9AFB
:104D20008AE08C9FF0018D9FF00D1124EB55FD4F13
:104D30000190F081E02D81E08083789481E090E023
:104D400058C000C0E7CF8AE08C9F80018D9F100D76
:104D500011240B551D4FF80165816623B9F0809130
:104D60003B0390913C0326813781820F931F0E9461
:104D7000122581110BC0529A5A9AD801ED91FC91DB
:104D800082E08083789482E090E033C00E94DC244B
:104D9000B0E2BA95F1F75A98529AE0E1EA95F1F744
:104DA0008AE08C9FF0018D9FF00D1124EB55FD4F93
:104DB0006281662351F080913B0390913C032381F3
:104DC0003481820F931F0E9465250E94E4248AE0AB
:104DD0008C9FF0018D9FF00D1124EB55FD4F01903C
:104DE000F081E02D1082789480E090E002C084E0B1
:104DF00090E0DF91CF911F910F91089590933F0321
:104E000080933E0308959093F6038093F5030895ED
:104E10000E94811B811103C08091F0030895E091ED
:104E2000F503F091F603309721F00190F081E02D29
:104E3000099480E008950E9408270895E091F50301
:104E4000F091F603309721F00280F381E02D099470
:104E50000895E091F503F091F603309739F022E0E0
:104E6000DC012C930480F581E02D099408952091B4
:104E7000F3033091F4032817390771F09093F4038A
:104E80008093F303E091F503F091F603309721F05E
:104E90000680F781E02D099408952091F103309167
:104EA000F2032817390771F09093F2038093F1030E
:104EB000E091F503F091F603309721F00084F1853D
:104EC000E02D09940895FC01329697E080E091501E
:104ED00029F021912223D9F38F5FF9CF089566231A
:104EE00049F0FC01329608962191621729F0E817E3
:104EF000F907D1F780E0089581E008959C01FC0155
:104F000032969FEF80E04191461789F09F3F19F458
:104F1000411101C0982F8F5F8630A9F79F3F39F06C
:104F2000F901E90FF11D97FDFA956283089508953F
:104F30009C012A5F3F4FFC014281461301C012824F
:104F4000019682179307B9F708950C947E270C9465
:104F50009827029626E0FC0111922A95E9F7089518
:104F600008950C94B02783E08093F7030C94B12745
:104F7000811102C081E001C082E08093F7030C94AC
:104F8000B1270C94B82781E08093F7030C94B127E4
:104F90000C94C327089580912E04843031F10E942F
:104FA0001B091092F80320E488E190E00FB6F89412
:104FB000A895809360000FBE2093600083B7817F27
:104FC000846083BF83B7816083BF7894889583B7FB
:104FD0008E7F83BF0FB6F894A8958091600088619A
:104FE00080936000109260000FBE089508950C94A5
:104FF000F627CF930E94F7270E94F41A0E94F62703
:10500000C0E08C2F0E949019811104C0CF5FC8307E
:10501000C1F701C081E0CF9108950E94F00B0C947C
:1050200096091F920F920FB60F9211248F939F93A0
:10503000AF93BF938091F803811113C08091260430
:1050400090912704A0912804B09129044196A11DB4
:10505000B11D8093260490932704A0932804B09355
:105060002904BF91AF919F918F910F900FBE0F9028
:105070001F90189582E084BD93E095BD9AEF97BD8F
:1050800080936E0008952FB7F89480912604909134
:105090002704A0912804B09129042FBF08952FB7A9
:1050A000F8946091260470912704809128049091CF
:1050B00029042FBF08959C014FB7F89480912604CE
:1050C00090912704A0912804B09129044FBF821B1E
:1050D000930B0895CF92DF92EF92FF922FB7F8943F
:1050E000C0902604D0902704E0902804F090290472
:1050F0002FBFA7019601261B370B480B590BCA017E
:10510000B901FF90EF90DF90CF90089578941F92AF
:105110000F920FB60F9211248F939F93AF93BF936B
:105120008091260490912704A0912804B09129042D
:105130000196A11DB11D8093260490932704A0938E
:105140002804B0932904BF91AF919F918F910F9044
:105150000FBE0F901F90189587E797E7909301086F
:10516000809300089AE088E10FB6F894A8958093A0
:1051700060000FBE90936000FFCF809104040895FB
:10518000089522E02093E9002FEF3091E8002150AC
:1051900035FD06C035ED3A95F1F700002111F5CF48
:1051A0002091E80025FF0BC040E050E066E070E091
:1051B0000E94EB2A8091E8008E778093E8000895A2
:1051C000CF93DF9321E02093E9002FEF3091E800A7
:1051D000215035FD06C035ED3A95F1F7000021115B
:1051E000F5CF2091E80025FF14C0EC0140E050E02D
:1051F00068E070E00E94EB2A8091E8008E7780934F
:10520000E80088E0FE01ACEFB3E001900D928A95D2
:10521000E1F7DF91CF9108958093F9037093FB0339
:105220006093FA0380912E04843001F582E080932C
:10523000E9008FEF9091E800815095FD06C095ED53
:105240009A95F1F700008111F5CF8091E80085FF74
:105250000DC040E050E063E070E089EF93E00E9411
:10526000EB2A8091E8008E778093E8000895BC01D6
:1052700084E00C940C29BC0183E00C940C298091EF
:105280002D04811109C00E947C2C0E94D92C809190
:10529000E20084608093E200089510922D04089546
:1052A0000C94C82760912A0481E0611101C080E05C
:1052B0000C94B32790912E0481E0943009F080E0A3
:1052C00060912A040C94B82742E061EC81E00E94CE
:1052D000F52B42E261EC82E00E94F52B90912E04C6
:1052E00081E0943009F080E060912A040C94C12799
:1052F00080913004833009F461C030F4813071F062
:10530000823009F49AC008958A3009F486C08B303F
:1053100009F46CC0893009F0A8C020C080912F0426
:10532000813A09F0A2C08091E800877F8093E8006D
:105330008091330490913404892B21F468E08CEF40
:1053400093E003C060E080E090E070E00E94362BC4
:105350008091E8008B778093E800089580912F0476
:10536000813209F082C08091330490913404029715
:1053700008F07BC08091E800877F8093E8008091EF
:10538000E80082FD05C080912E048111F8CF6DC028
:105390002091F3008091F20090E0922B029731F47B
:1053A0008091F100813011F0863021F48091F1007C
:1053B000809304048091E8008B7753C080912F0480
:1053C000813A09F052C08091330490913404892BC2
:1053D00009F04BC08091E800877F8093E8008091BE
:1053E000E80080FFFCCF8091D80236C080912F0466
:1053F0008132D9F58091330490913404892BA9F539
:105400008091E800877F8093E8000E942A2C809199
:1054100031048093D8020C94F00B80912F048132D8
:1054200021F58091E800877F8093E8000E942A2C74
:105430008091320480930504089580912F04813A6D
:10544000A1F48091E800877F8093E8008091E800D4
:1054500080FFFCCF809105048093F1008091E800EB
:105460008E778093E8000C942A2C089584B7877F68
:1054700084BF0FB6F894A8958091600088618093EE
:105480006000109260000FBE90E080E80FB6F894C4
:1054900080936100909361000FBE0C94C3270E941B
:1054A0007C2C0E94D92CE2EEF0E080818460808325
:1054B00078940C946E2F8CEC92E00C9403278091DE
:1054C0002E048530A9F480912E04853079F40E9451
:1054D000CB2780912C048823B1F30E94F9278823DD
:1054E00091F30E94D52A0E94F00BEDCF0C940D2869
:1054F000089508950C947C2A292F332723303105F1
:10550000C9F060F42130310581F02230310509F015
:1055100044C08BE390E026E133E043C02132310503
:10552000E1F02232310549F138C082E190E021E515
:1055300033E037C099278130910549F028F0029770
:1055400061F5ECEEF2E005C0E2E1F3E002C0E8E074
:10555000F3E0849190E09F0124C06115710541F052
:1055600061307105D1F489E090E021E433E019C0A5
:1055700089E090E028E233E014C06115710541F044
:105580006130710551F48BE790E023E633E009C008
:1055900080E490E02EED33E004C080E090E020E075
:1055A00030E0FA0131832083089580E189BD82E1F2
:1055B00089BD09B400FEFDCF8091D8008F7D809316
:1055C000D8008091E00082608093E0008091E0004C
:1055D00081FDFCCF0895CF92DF92EF92FF920F935F
:1055E0001F93CF93DF93EC018B017A010E94492C2A
:1055F000811133C0E114F10439F0F7018081918108
:10560000081B190BC80FD91FC12CD12C011511056E
:1056100019F18091E80085FD16C08091E8008E7731
:105620008093E800E114F10449F0F7018081918151
:10563000C80ED91ED182C08285E00FC00E94492CBD
:10564000882321F30AC089918093F1000150110948
:10565000FFEFCF1ADF0ADACF80E0DF91CF911F9101
:105660000F91FF90EF90DF90CF9008952091350437
:10567000309136042617370748F06115710539F463
:105680002091E8002E772093E80001C0B901FC01C9
:1056900020E06115710579F180912E048823F1F1E4
:1056A0008530F1F18091E80083FD3CC08091E800F5
:1056B00082FD2EC08091E80080FFEBCF2091F300A7
:1056C0008091F20090E0922B6115710551F08830C5
:1056D000910538F421912093F100615071090196F0
:1056E000F3CF21E0089709F020E08091E8008E7761
:1056F0008093E800CECF2111CFCF0AC080912E0435
:10570000882361F0853061F08091E80083FD0AC054
:105710008091E80082FFF2CF80E0089582E0089552
:1057200083E0089581E00895209135043091360496
:105730002617370748F06115710539F42091E80004
:105740002E772093E80001C0B901FC0120E061152B
:10575000710591F180912E04882309F440C08530B1
:1057600009F43FC08091E80083FD3DC08091E800CE
:1057700082FD2FC08091E80080FFE9CF2091F300E7
:105780008091F20090E0922B6115710559F08830FC
:10579000910540F424912093F100319661507109F4
:1057A0000196F2CF21E0089709F020E08091E8000F
:1057B0008E778093E800CBCF2111CCCF0AC08091A7
:1057C0002E04882361F0853061F08091E80083FD2C
:1057D0000AC08091E80082FFF2CF80E0089582E065
:1057E000089583E0089581E00895982F973068F533
:1057F0009093E900981739F07091EC002091ED003A
:105800005091F00003C0242F762F50E021FD02C0FC
:105810009F5FECCF3091EB003E7F3093EB003091F7
:10582000ED003D7F3093ED003091EB00316030931F
:10583000EB007093EC002093ED005093F00020916A
:10584000EE0027FDE5CF80E008958F708093E9009A
:1058500081E0089580912F0487FF11C08091E800B6
:1058600082FD05C080912E048111F8CF11C0809176
:10587000E8008B770BC080912E04882349F080913B
:10588000E80080FFF8CF8091E8008E778093E800F1
:1058900008952091E4003091E50095E64091EC00F8
:1058A000842F817040FF23C08091E80080FD1DC0DF
:1058B00080912E04882399F0853099F08091EB0037
:1058C00085FD11C04091E4005091E5002417350793
:1058D00029F3915011F09A01E1CF84E0089582E01C
:1058E000089583E0089581E0089580E0089540914F
:1058F000E80042FFDDCF08950E94EA2C0E94F22CBE
:10590000E0EEF0E0808181608083E8EDF0E080816E
:105910008F77808319BCA7EDB0E08C918E7F8C933C
:1059200080818F7E808310922D0408950F931F93A2
:10593000CF93DF930E94EA2C0E94F22CC8EDD0E0B6
:1059400088818F77888388818068888388818F7D2C
:10595000888319BC10922E0410922A0410922C04F1
:1059600010922B0400EE10E0F80180818B7F808381
:1059700088818160888342E060E080E00E94F52BAE
:10598000E1EEF0E080818E7F8083E2EEF0E08081C6
:1059900081608083808188608083F80180818E7F30
:1059A0008083888180618883DF91CF911F910F91DF
:1059B0000895E8EDF0E080818F7E8083E7EDF0E0F0
:1059C00080818160808384E082BF81E080932D04A8
:1059D0000C94962CE8EDF0E080818E7F808310920D
:1059E000E20008951092DA001092E10008951F92EB
:1059F0000F920FB60F9211242F933F934F935F9303
:105A00006F937F938F939F93AF93BF93EF93FF9386
:105A10008091E10082FF0BC08091E20082FF07C00D
:105A20008091E1008B7F8093E1000E946D2F809137
:105A3000DA0080FF1FC08091D80080FF1BC08091DA
:105A4000DA008E7F8093DA008091D90080FF0DC04C
:105A500080E189BD82E189BD09B400FEFDCF81E00E
:105A600080932E040E943F2905C019BC10922E0479
:105A70000E944D298091E10080FF19C08091E200D1
:105A800080FF15C08091E2008E7F8093E2008091BC
:105A9000E20080618093E2008091D8008062809370
:105AA000D80019BC85E080932E040E945229809171
:105AB000E10084FF30C08091E20084FF2CC080E1CF
:105AC00089BD82E189BD09B400FEFDCF8091D80077
:105AD0008F7D8093D8008091E1008F7E8093E100DC
